:0400000085EF00F098
:10000800A540A540A540A540A540A540A540A540C0
:10001800A540A540A540A540A540A540A540A540B0
:10002800A540A540A540A540A540A540A540A540A0
:10003800A540A540A540A540A540A540A540A54090
:10004800A540A540A540A540A540A540A540A54080
:10005800A540A540A540A540A540A540A540A54070
:10006800A540A540A540A540A540A540A540A54060
:10007800A540A540A540A5404200A540A540A540F3
:10008800A540A540A540A540A540A540A540A54040
:10009800A540A540A540A5404200A540A540A540D3
:1000A800A5408640A540A540A540A540A540A5403F
:1000B800A540A540A540A540A540A540A540A54010
:1000C800A540A540A540A540A540A540A540A54000
:1000D800A540A540A540A540A540A540A540A540F0
:1000E8004200A540A540A540A540A540A540A54083
:1000F800A540A540A540A540A540A540A540A540D0
:06010800FF003CEF81F056
:10BFFE0000FFFFFFFFFFFFFFFFFFFFFFFFFFFFFF42
:10C00E00FFFFFFFFFFFFFFFFFFFFFFFFFFFFFFFF32
:10C01E00FFFFFFFFFFFFFFFFFFFFFFFFFFFFFFFF22
:10C02E00FFFFFFFFFFFFFFFFFFFFFFFFFFFFFFFF12
:10C03E00FFFFFFFFFFFFFFFFFFFFFFFFFFFFFFFF02
:10DAFE00FF8D0327FC39B6A00085012706B6A001CD
:10DB0E00847F394F398D243402810D270BB7A00144
:10DB1E000C799679917825100F798D0F860DB7A017
:10DB2E00018D08860AB7A0013502393402B6A0006D
:10DB3E00850227F935023910CE01EE966E815526F3
:10DB4E000A9E6FA684811226026E848E02186F833F
:10DB5E00300126FA8E02176F809F19A60243A70284
:10DB6E00A10226063001630120F19F719F279F239A
:10DB7E003089FF389F211F148EDBCECE0076C61261
:10DB8E00BDDCAECE00A7C604BDDCAE863997F0BDB7
:10DB9E00DFBA8E00B59F8DCEE6CEC60AEF815A262D
:10DBAE00FB8695B7A0008EDC03BDEBE58EDBC69F32
:10DBBE006F8655976E200412BDDFD47EDF223B1098
:10DBCE00405000E6CE0C8426020C83B600007EDCAC
:10DBDE00BF7EDCBE7EDBCD7EE6CE804FC752593295
:10DBEE00DD1DDE2A1DDDBDDCCE00000000000000C4
:10DBFE0000000000003638303920455854454E4458
:10DC0E0045442042415349430D2843292031393898
:10DC1E0032204259204D4943524F534F46540D0D19
:10DC2E000034169E76DC789F6AD76C976D35960F0A
:10DC3E00738E00F4C601BDDB00810826075A27EF5C
:10DC4E00301F20348115260A5A27E48608BDDB14BE
:10DC5E0020F681031A012705810D260D4F3401BDD3
:10DC6E00EBA56F848E00F33581812025C9817B243D
:10DC7E00C5C1FA24C1A7805CBDDB1420B92705BD40
:10DC8E00E9C19F7A6E9F007A7EE0A396732603BD4C
:10DC9E00DB050F73975310260C6A97567EE91FA665
:10DCAE0080A7C05A26F939399D8227FB7EE5003BB5
:10DCBE00813A240A812026020E7C803080D039EEF3
:10DCCE00C3EF37EEDC00ADF168F1BDE9D4E905E74D
:10DCDE0081E99AE924E910F26DF235F23EF3AFF3E1
:10DCEE00E1F303F569F33DFA3BE92FE94CE953DC27
:10DCFE009AE772F571F631F60179EC0E79EC057B47
:10DD0E00ED157BEDDA7FF34650E55946E558464F63
:10DD1E00D247CF5245CDA7454C53C549C644415471
:10DD2E00C15052494ED44FCE494E5055D4454EC493
:10DD3E004E4558D44449CD524541C45255CE524514
:10DD4E0053544F52C55245545552CE53544FD05042
:10DD5E004F4BC5434F4ED44C4953D4434C4541D2FF
:10DD6E004E45D7455845C354524FCE54524F46C6D2
:10DD7E004445CC4445C64C494EC552454E55CD45FD
:10DD8E004449D4544142A854CF5355C2544845CE69
:10DD9E004E4FD4535445D04F46C6ABADAAAFDE411D
:10DDAE004EC44FD2BEBDBC46CE5553494EC7534747
:10DDBE00CE494ED44142D35553D2524EC45349CE7E
:10DDCE00504545CB4C45CE535452A45641CC4153AD
:10DDDE00C3434852A44154CE434FD35441CE455829
:10DDEE00D04649D84C4FC7504FD35351D2484558BF
:10DDFE00A44C454654A45249474854A44D4944A402
:10DE0E00494E4B4559A44D45CD5641525054D249D9
:10DE1E004E5354D2535452494E47A4DFE8E133E1F6
:10DE2E0090E190E190E1C1E18DEB6AE1EFE29CE0DF
:10DE3E00BAE381E5D2E2D6E128E09CE16DE0BEE9ED
:10DE4E00DBE0E3E9E2E0F4DFB8DC8CF564F565F7DE
:10DE5E00E0F724FECEF86AF3F04E46534E52474F8B
:10DE6E004446434F564F4D554C425344442F304930
:10DE7E0044544D4F534C535354434E4644414F44D8
:10DE8E004E494F464D4E4F4945445355464E4520FB
:10DE9E004552524F520020494E20000D4F4B0D005F
:10DEAE000D425245414B003064C6129F0FA684802E
:10DEBE00802615AE019F119E3B27099C1127099EB6
:10DECE000F3A20E59E119F3B9E0F4D398D17DE4177
:10DEDE0033419E433001A68236029C4726F8DF4529
:10DEEE00394F58D31FC3003A250810DF1710931768
:10DEFE0025EEC60CBDDFD4BDEBA9BDEBF88EDE68FA
:10DF0E003A8D318D2F8EDE9DBDEBE596684C270345
:10DF1E00BDF00EBDEBA98EDEAABDEBE5BDDC3ECE9F
:10DF2E00FFFFDF6825F69F839D7C27F0250BBDEA5A
:10DF3E00977EE071A6807EEBFABDE2149E2B9FF1D8
:10DF4E00BDEA97D7038D4C2512DC47A384D31BDD86
:10DF5E001BEE843702A7809C1B26F896F3271CDC49
:10DF6E001BDD43DB038900DD41BDDEDBCE00EF3779
:10DF7E0002A7809C4526F89E419F1B8D368D022060
:10DF8E009B9E19EC8427213304A6C026FCEF84AE99
:10DF9E008420F0DC2B9E19EE84270910A3022306A1
:10DFAE00AE8420F31A019F473926FB9E196F806FAE
:10DFBE00809F1B9E19BDE1689E279F23BDE09C9EFE
:10DFCE001B9F1D9F1F8E00C99F0BAEE410DE216F9D
:10DFDE00E20F2D0F2E0F086E8486809708BDE23655
:10DFEE00BDDEB6326226049E0F3285C609BDDEF056
:10DFFE00BDE195DC683416C6A0BDE4F8BDE3CCBD2A
:10E00E00E3CAD654CA7FD450D750108EE0207EE497
:10E01E00738EED0EBDEE5D9D8281A426059D7CBDA9
:10E02E00E3CABDEEB6BDE46FDC3B34068680340237
:10E03E001CAF8D609E839F2FA6802707813A2722D3
:10E04E007EE500A68197002772EC80DD689F83969F
:10E05E008C270F865BBDDB149668BDF015865DBD03
:10E06E00DB149D7C8D0220C827294D102A01B88112
:10E07E00FF270F819E22C9BEDBF1481F893A9D7C86
:10E08E006E949D7C8197102714F07EE5009E1930CA
:10E09E001F9F3339BDDB05270A8103271281132702
:10E0AE0003977339BDDB0527FB20EE9D8220021AF4
:10E0BE000126319E839F2F060032629E688CFFFFE1
:10E0CE0027069F299E2F9F2D8EDEAE0D00102AFE55
:10E0DE00427EDF17260EC6209E2D1027FE169F832A
:10E0EE009E299F6839272CBDE66A34069E279D829D
:10E0FE00270CBDE4F6BDE9C1301F9C7122181F101C
:10E10E00A3E125121F0383003A250B931B2507DF7E
:10E11E00219F277EDFC77EDF019D821027FE94BDE3
:10E12E00DFC720191F899D7CC1A02716C1A12645D6
:10E13E00C603BDDEF0DE839E6886A134528D037E5B
:10E14E00E03F9D82BDE2148D403001DC2B109368C0
:10E15E0022029E19BDDFA62517301F9F833926FD8B
:10E16E0086FF973BBDDEB61F148121270BC6048C9C
:10E17E00C60E7EDF037EE50035529F68DF838D0677
:10E18E008C8D069F8339C63A865FD7015F9E831FAB
:10E19E0098D6019701A68427EC3404A1E027E63037
:10E1AE0001812227EA4C26023001818626E70C04E3
:10E1BE0020E3BDE3CA9D8281812705C6A2BDE4F896
:10E1CE00964F26130F048DB64D27BA9D7C8184265B
:10E1DE00F50A042AF19D7C9D821025FF657EE0776D
:10E1EE00BDE98FC681BDE4F8340281A1270481A068
:10E1FE0026830A53260535047EE1359D7C8D0681E6
:10E20E002C27EF35849E749F2B246180309701DC80
:10E21E002B811822DB58495849D32B5849DB0189E9
:10E22E0000DD2B9D7C20E2BDE5DB9F3BC6AEBDE451
:10E23E00F896063402BDE3DF350246BDE3D1102762
:10E24E000C2B9E52DC2110A30224119C1B250DE6E3
:10E25E0084BDE7919E4DBDE8C78E00569F4DBDE82B
:10E26E00F9DE4D9E3B3726A78410AF02393F52454B
:10E27E00444F0D007EDF03960927079E319F687E6F
:10E28E00E5008EE27BBDEBE59E2F9F8339C6169E81
:10E29E0068300127DF8D01398122260BBDE4CDC602
:10E2AE003BBDE4F8BDEBE88E00F36F848D06C62C03
:10E2BE00E7842016BDEBF8BDEBF5BDDC3E24053240
:10E2CE00647EE0C6C62E399E33864F97099F35BDB4
:10E2DE00E5DB9F3B9E839F2B9E35A68426099609E0
:10E2EE002651BDEBF88DCD9F839D7CD60627239EB0
:10E2FE008397018122270E301F4F9701BDDC308698
:10E30E003A9701862C9702BDE7A2BDE4D2BDE25139
:10E31E002006BDEF5BBDEE7C9D822706812C10266C
:10E32E00FF529E839F359E2B9F839D822721BDE4A6
:10E33E00F6209C9F83BDE19530014D260AC606EE60
:10E34E00812741EC81DD31A684818626E620989EC8
:10E35E0035D6091026FD3AA68427068EE3707EEB8D
:10E36E00E5393F45585452412049474E4F52454496
:10E37E000D0026049E742003BDE5DB9F3BBDDEB67B
:10E38E002704C60020471F143003BDEE5DA6689714
:10E39E00549E3BBDEC0BBDEE7C3069BDEEDFE068FC
:10E3AE00270CAE6E9F68AEE8109F837EE03F32E88A
:10E3BE00129D82812C26F49D7C8DBD8D131CFE7DBD
:10E3CE001A010D0625032A998C2B96C6187EDF039B
:10E3DE008D6E4F8C34043402C601BDDEF0BDE4AC4C
:10E3EE000F3F9D8280AD25138103240F8101499833
:10E3FE003F913F2564973F9D7C20E9D63F26331001
:10E40E0024006B8B07246799061027047789FF3445
:10E41E000248ABE08EDD0830863502A18424558D8E
:10E42E009C34028D299E3D3502261D4D1027006A13
:10E43E00204B0806598D098EE454D73F0F0620D97C
:10E44E009E837EE16864E578A184243120D3EC01BB
:10E45E0034068D08D63F16FF7B7EE500D654A68483
:10E46E0035203404D64F9E50DE5234546EA49E7422
:10E47E00A6E0272681642703BDE3CC9F3D350481AA
:10E48E005A2719817D271554D70A3552975C9F5DFF
:10E49E00DF5F3504D761D854D762D64F39BDF6F950
:10E4AE000F069D7C24037EEF5BBDE6262450812E55
:10E4BE0027F481A7274081A627E38122260A9E837F
:10E4CE00BDE79C9E649F833981A3260D865ABDE3CA
:10E4DE00E3BDE67143537EE7784C272E8D06BDE3F0
:10E4EE00DFC6298CC6288CC62CE19F008326020E1F
:10E4FE007CC6027EDF03867DBDE3E37EF132BDE5A1
:10E50E00DB9F52960626957EEE5D9D7C1F89589D5B
:10E51E007CC13823037EE5003404C12A251EC13098
:10E52E00241C8DC0A6E4BDE3DF8DBCBDE3CF350258
:10E53E00DE523442BDE98F350234068E8D9E35048F
:10E54E00BEDBF63AAD947EE3CC864F9703BDE67103
:10E55E00DD01BDEE93BDE6710D0326069401D402D6
:10E56E0020049A01DA027EE778BDE3D12610966187
:10E57E008A7F945D975D8E005CBDEEDF20360F06C0
:10E58E000A3FBDE8DBD7569F589E5FBDE8DD965625
:10E59E003404A0E0270786012403D656409754DEA4
:10E5AE00585C5A2604D654200BA680A1C027F3C669
:10E5BE00FF240150CB0159D40A2702C6FF7EEEC5B7
:10E5CE00BDE4F6C6018D089D8226F5395F9D82D782
:10E5DE000597379D828D401025FF165FD7069D7CCF
:10E5EE0025048D33250A1F899D7C25FC8D2924F851
:10E5FE00812426060306CB809D7CD7389A08802876
:10E60E00102700750F089E1BDC379C1D271210A3C8
:10E61E0081273E300520F381412504805B80A5399A
:10E62E008E0074EEE41183E5102728DC1FDD43C352
:10E63E000007DD419E1D9F47BDDEDB9E419F1F9E55
:10E64E00459F1D9E47DC37ED814F5FED84ED02A7A0
:10E65E00049F393990800000009D7CBDE3CA96541A
:10E66E002B5DBDE3CC964F819025088EE663BDEE03
:10E67E00DF264CBDEF11DC5239DC053406125F9EED
:10E68E003734148DD435349F37DE5234605C9D821E
:10E69E00812C27EBD703BDE4F03506DD059E1D9CCE
:10E6AE001F2721DC3710A3842706EC02308B20EFC6
:10E6BE00C6129605260BD603E1042759C6108CC642
:10E6CE00087EDF03CC0005DD64DC37ED84D603E77E
:10E6DE0004BDDEF09F41C60B4F0D0527053506C361
:10E6EE000001ED058D5DDD6430020A0326E89F0F03
:10E6FE00D30F1025F7FC1F01BDDEF4830035DD1F9F
:10E70E004F301FA7059C0F26F89E41961F9341ED93
:10E71E00029605262DE604D7034F5FDD643506DD30
:10E72E005210A305243ADE6427048D17D35230020B
:10E73E000A0326E7EDE358495849E3E1308B3005EB
:10E74E009F393986109745EC05DD174F5F584925DF
:10E75E000F086509642404D31725050A4526EE39EA
:10E76E007EE6CB1F40931F214F0F06DD50C6907ED5
:10E77E00EECBBDE3CCCE01F0BDF02532628E01EFC3
:10E78E00200B9F4D8D5C9F58D75639301F86229790
:10E79E0001970230019F629F58C6FF5CA680270C2E
:10E7AE0091012704910226F381222702301F9F64D4
:10E7BE00D756DE62118301F022078DC69E62BDE838
:10E7CE00C99E0B8C00F12605C61E7EDF039656A74A
:10E7DE0000DC58ED0286FF97069F0D9F5230059F75
:10E7EE000B390F074F3406DC23A3E0109321250AC3
:10E7FE00DD239E2330019F253584C61A030727CAC1
:10E80E008D04350420DE9E279F234F5FDD4B9E2116
:10E81E009F478E00C99C0B27048D3220F89E1B9CAF
:10E82E001D27048D2220F89F419E419C1F2735EC09
:10E83E0002D341DD41A6012AF0E60458CB053A9CED
:10E84E004127E88D0820F8A60130022A14E6842715
:10E85E0010EC02109323220910934723049F4BDDE3
:10E86E00473005399E4B27FB4FE6845AD347DD438D
:10E87E009E239F41BDDEDD9E4BDC45ED029E453065
:10E88E001F7EE817DC523406BDE4ACBDE3CF351075
:10E89E009F62E6849E52EB842405C61C7EDF03BD78
:10E8AE00E7919E62E6848D109E4D8D228D0C9E62A8
:10E8BE008D1CBDE7D07EE3F1AE02DE255C2004A602
:10E8CE0080A7C05A26F9DF2539BDE3CF9E52E684D4
:10E8DE008D182613AE07301F9C2326083404D3232D
:10E8EE00DD233504300139AE02399C0D26079F0B0E
:10E8FE00301B9F0D4F398D037EE7778DCC0F065D54
:10E90E0039BDE992C601BDE7F19653BDE795A784DF
:10E91E0032627EE7D08D0220DF8DE0275EE68439FD
:10E92E008D484FE1842303E6844F3406BDE7939E62
:10E93E004D8D9B35043A3504BDE8C920D58D2BA0ED
:10E94E00844020DFC6FFD7539D8281292705BDE471
:10E95E00F68D2D8D1527245F4AA18424CD1F89E0C5
:10E96E008450D15323C4D65320C0BDE4F0EEE4AEA0
:10E97E00659F4DA664E66432671F357EE6CE9D7CAC
:10E98E00BDE3CABDE66D4D26F20E82BDE90A102723
:10E99E0002E1DE839F833AA68434526F849D82BD4A
:10E9AE00EF5B3552A784DF83398D079F2BBDE4F6CD
:10E9BE0020CEBDE3CA96542BC2964F819022BCBD89
:10E9CE00EF119E52398DEEE6847EE7778DDB9E2B1E
:10E9DE00E784393401BDE214BDDFA29F66350127FD
:10E9EE00129D82271381A726099D7C2706BDE2145E
:10E9FE00270639CEFFFFDF2B32629E66BDEBA9BD27
:10EA0E00DC97EC8426037EDF229F66EC0210932BAC
:10EA1E0022F4BDF015BDEBF59E668D10AE9F00661F
:10EA2E00CE00F4A6C027D5BDEBFA20F73004108E29
:10EA3E0000F4A68027512B15813A260DE684C18459
:10EA4E0027F0C18327EC8C86218D3020E5CEDBE4C8
:10EA5E0081FF2604A6803345847F334A6DC427E7A1
:10EA6E00A0C42AF6ABC4EE414A2B066DC02AFC2088
:10EA7E00F7A6C48D066DC02AF820B7108C01ED24C0
:10EA8E0006847FA7A06FA4399E83CE00F30F430F99
:10EA9E0044A68027210D43270FBDE626241881307A
:10EAAE002504813923100F438120270A97428122A2
:10EABE0027380D442719A7C02706813A27CF20D122
:10EACE006FC06FC01F308300F18E00F29F833981BB
:10EADE003F2604868720DF81272613CC3A83EDC19B
:10EAEE000F42A68027D0914227CCA7C020F48130B8
:10EAFE002504813C25C0301F34500F41CEDBE40F7E
:10EB0E0042334AA6C4273110AE41AEE4E6A0E080FF
:10EB1E0027FAC180263832623540DA4296412606FF
:10EB2E00C1842606863AEDC12094E7C0C18626022E
:10EB3E000C44C18227AA2086CEDBE9034126C035CC
:10EB4E0050A680A7C0BDE62625EC034320E80C4264
:10EB5E004A27AE313FE6A02AFC20AF27398D013976
:10EB6E00BDFACF273E819F2753812C2737813B2724
:10EB7E0060BDE3DF960634022606BDF022BDE79A9D
:10EB8E008D573504BDDC305D26089D82812C2714FF
:10EB9E008D549D8226CF860D2051BDDC3027F796F1
:10EBAE006C26F339BDDC30270AD66CD16B25068D69
:10EBBE00E5201ED66CD06A24FC502010BDE98D8154
:10EBCE00291026F92CBDDC30D06C23058D185A2661
:10EBDE00FB9D7C7EEB72BDE79CBDE8DB5C5A27C3D8
:10EBEE00A6808D0720F786208C863F7EDB148EF163
:10EBFE00092009BDED78035403622003BDED785D55
:10EC0E00102702808E005C1F895D276CD04F27690C
:10EC1E00250A974F966197548E004F50C1F82F5981
:10EC2E004F6401BDED03D6622A0B630163026303D9
:10EC3E00630443890097639653996097539652994C
:10EC4E005F97529651995E97519650995D97505D88
:10EC5E002A4425028D5D5F9650262E96519750962A
:10EC6E0052975196539752966397530F63CB08C1A1
:10EC7E00282DE44F974F9754398D6D5F20A85C086F
:10EC8E006309530952095109502AF3964F3404A0CF
:10EC9E00E0974F23DE8C2508086386009763200CCF
:10ECAE000C4F2728065006510652065324048D0D8C
:10ECBE0027EE39035403500351035203539E52302F
:10ECCE00019F5226069E5030019F5039C60A7EDFA4
:10ECDE00038E0012A6049763A603A704A602A70339
:10ECEE00A601A702965BA701CB082FE89663C00882
:10ECFE00270C6701660266036604465C26F43981BA
:10ED0E00000000008D6327608D788600971397149E
:10ED1E0097159716D6538D22D663D78BD6528D1A4A
:10ED2E00D663D78AD6518D12D663D789D6508D0C1D
:10ED3E00D663D788BDEE547EEC6527954396135661
:10ED4E002726241696169B6097169615995F97158B
:10ED5E009614995E97149613995D469713061406AA
:10ED6E0015061606634F20D539EC0197618A80DDB2
:10ED7E005DD661D854D762EC03DD5FA684975CD66E
:10ED8E004F394D27169B4F464928108B80974F279A
:10ED9E000C966297543996544320023262102AFE22
:10EDAE00D27EECDBBDEEA8270D8B0225F40F62BDE3
:10EDBE00EC160C4F27EB398420000000BDEEA88E18
:10EDCE00EDC65FD762BDEE5D8C8D9E2773004F8DB5
:10EDDE00B10C4F27CC8E0013C604D703C601965034
:10EDEE00915D26139651915E260D9652915F2607E0
:10EDFE00965391602601431FA859240AE7800A03FF
:10EE0E002B34272EC6011F8A250E0860095F095E66
:10EE1E00095D25E32BC820DF966090539760965FBF
:10EE2E009252975F965E9251975E965D9250975D65
:10EE3E0020D8C64020D0565656D7638D087EEC6536
:10EE4E00C6147EDF039E139F509E159F52393402C7
:10EE5E00EC0197548A80DD500F63E684AE039F5217
:10EE6E00D74F35828E004520068E00408C9E3B96F5
:10EE7E004FA78496548A7F9450A7019651A702DE1D
:10EE8E0052EF0339966197549E5C9F4F0F63965EC7
:10EE9E00975196549E5F9F5239DC4FDD5C9E519F79
:10EEAE005E9E539F604D39D64F2708D65459C6FFE4
:10EEBE00250150398DF1D7500F51C688965080805C
:10EECE00D74FDC74DD52976397547EEC610F543943
:10EEDE00E68427D3E601D8542BD1D64FE184261DE4
:10EEEE00E601CA7FD450E1012613D651E102260D68
:10EEFE00D652E1032607D653E00426013956D854DC
:10EF0E0020ABD64F273DC0A096542A05035BBDEC1F
:10EF1E00C48E004FC1F82E06BDECF70F5B390F5BA8
:10EF2E0096544906507EED03D64FC1A0241D8DD2B6
:10EF3E00D7639654D754808086A0974F96539701E7
:10EF4E007EEC61D750D751D752D753399E749F5408
:10EF5E009F4F9F519F529F479F452564BDF69881B5
:10EF6E002D260403552004812B26049D7C255181DA
:10EF7E002E2728814526289D7C256481A7270E8172
:10EF8E002D270A81A62708812B2704200603489DDA
:10EF9E007C254C0D48270800472004034626CC96B6
:10EFAE00479045974727122A09BDEDCB0C4726F906
:10EFBE002007BDEDB30A4726F996552A8E7EF1320B
:10EFCE00D645D046D7453402BDEDB33504C0308D9D
:10EFDE00022098BDEE78BDEEC58E00407EEC0BD6BD
:10EFEE00475858DB475880303404ABE09747209F92
:10EFFE009B3EBC1FFD9E6E6B27FD9E6E6B28008E8A
:10F00E00DEA48D0CDC68DD50C69043BDEECF8D03C3
:10F01E007EEBE5CE01F18620D6542A02862DA7C0BE
:10F02E00DF6497548630D64F102700C64FC180221A
:10F03E00088EF009BDED1386F797458EF004BDEEF0
:10F04E00E92E0F8EEFFFBDEEE92E0EBDEDB30A4594
:10F05E0020F1BDEDCB0C4520E2BDEBFDBDEF11C6A1
:10F06E000196458B0A2B09810B24054A1F898602BE
:10F07E004A4A9747D7452E0DDE64862EA7C05D27D8
:10F08E00048630A7C08EF10EC6809653AB039753FD
:10F09E009652A90297529651A90197519650A9845A
:10F0AE0097505C565928E32403C00B50CB2F3004E5
:10F0BE001F98847FA7C00A452604862EA7C053C476
:10F0CE00808CF13226C4A6C2813027FA812E260208
:10F0DE00335F862BD647271C2A03862D50A74286E0
:10F0EE0045A741862F4CC00A24FBCB3AED436F4512
:10F0FE002004A7C46F418E01F1398000000000FA90
:10F10E000A1F0000989680FFF0BDC0000186A0FF88
:10F11E00FFD8F0000003E8FFFFFF9C0000000AFF8D
:10F12E00FFFFFF964F27020354399F64BDEE788D83
:10F13E00058D088E00407EED139F64BDEE739E64B8
:10F14E00E680D7559F648DEE9E6430059F64BDECBE
:10F15E000B8E00450A5526EE39BDEEB62B1F271530
:10F16E008D10BDEE788D0E8E00408DCA8EED0EBDCB
:10F17E00EC0B7EEF379EB19F509EB39F52BEF1B9FE
:10F18E009F5DBEF1BB9F5FBDED19DC8AC3658BDD54
:10F19E00B3DD52DC88C9B08905DDB1DD500F548670
:10F1AE0080974F961597637EEC6540E64DABBDEEAE
:10F1BE00A88EF202D661BDEDD2BDEEA88DB40F625F
:10F1CE00965CD64FBDEC058EF207BDEC029654341C
:10F1DE00022A09BDEBFD96542B05030ABDF1328EB2
:10F1EE00F207BDEC0B35024D2A03BDF1328EF20C47
:10F1FE007EF13983490FDAA27F000000000584E614
:10F20E001A2D1B862807FBF88799688901872335F5
:10F21E00DFE186A55DE72883490FDAA2A154468F68
:10F22E00138F524389CD8EF268BDEC0B7EF1BDBDBE
:10F23E00EE780F0A8DF68E004ABDEE7E8E0040BD32
:10F24E00EE5D0F54960A8D0C0D4F1027FA7E8E0030
:10F25E004A7EEDD834027EF1EB81490FDAA2965444
:10F26E0034022A028D24964F3402818125058EEDBB
:10F27E000E8DDE8EF29DBDF1393502818125068E11
:10F28E00F268BDEC0235024D2A037EF132390B765F
:10F29E00B383BDD3791EF4A6F57B83FCB0107C0C32
:10F2AE001F67CA7CDE53CBC17D1464704C7DB7EAF8
:10F2BE00517A7D6330887E7E9244993A7E4CCC9111
:10F2CE00C77FAAAAAA138100000000037F5E56CB57
:10F2DE007980139B0B6480763893168238AA3B2074
:10F2EE00803504F334813504F334808000000080CF
:10F2FE00317217F8BDEEB6102FF3C48EF2EF964FA3
:10F30E00808034028680974FBDEC0B8EF2F4BDEDFB
:10F31E00D88EED0EBDEC028EF2DABDF1398EF2F919
:10F32E00BDEC0B3504BDEFE28EF2FE7EED13BDEEAD
:10F33E00A88EF109BDEE5D27674D26037EEC838E08
:10F34E00004ABDEE7E5F96612A10BDEF378E004AF1
:10F35E009661BDEEE9260343D601BDEE953404BD9C
:10F36E00F3038E004ABDED138D363502461025FD92
:10F37E00B2398138AA3B29077134583E5674167E2D
:10F38E00B31B772FEEE3857A1D841C2A7C635958B4
:10F39E000A7E75FDE7C680317218108100000000EC
:10F3AE008EF381BDED13BDEE78964F818825037ED9
:10F3BE00EDA5BDEF3796018B8127F44A34028E00FE
:10F3CE0040BDEC028EF386BDF1480F623502BDEDF5
:10F3DE009139BDEEB62B037EEF3703548DF97EF1D6
:10F3EE0032BDF81E326286019798BDDFA21025ED60
:10F3FE007FBDEA3B1F208300F5D797DC2BBDF015B0
:10F40E00BDEBF58E00F4D69826255FBDF544BDFC08
:10F41E00E9250B80303402860A3DEBE020EDC00179
:10F42E00C90181412605BDEBA520BB814C260B8D64
:10F43E00310F98BDEBA520C33262810D260D8D22B2
:10F44E00BDEBA58E00F49F837EDF4B814527F181B6
:10F45E00512606BDEBA57EDF228D0220AD81202632
:10F46E00108CC6F9A6842708BDDB1430015A26F489
:10F47E0039814426486D8427F78D045A26F7390AB8
:10F48E0097311F3121A621A7A426F83981492713C8
:10F49E008158270D8148265C6F841F108300F5D795
:10F4AE00978DBFBDF544810D278E811B27258108C1
:10F4BE0026228C00F427EC8D458DC420E681432650
:10F4CE00CB6D84270EBDF544250220F5A7808D3720
:10F4DE005A26EE39D697C1F9260220C734106D8010
:10F4EE0026FCE682E701ACE426F83262A7808D178F
:10F4FE000C9720AF810826128D045A26FB398C00FA
:10F50E00F427D0301F86087EDB14814B27058053ED
:10F51E0027013934028D1E3402A68427166D61260A
:10F52E00068DE430012003BDF48EA684A1E426E905
:10F53E005A26E635A0BDDB00817F24F9815F2602C5
:10F54E00861B810D270E811B270A81082706812025
:10F55E0025E31A0139864F978C398600D6791D7EA0
:10F56E00E778BDE4F3DC1F3406BDE5DBBDE4F03522
:10F57E00061E109C1F26517EE7789D7CBDE4F3BDD0
:10F58E00E5DB3410EC02109321230493272312E6BB
:10F59E0084BDE7F13410AE62BDE8C73550AF4234DA
:10F5AE0040BDE9BC34045D271FC6FF81292703BD7A
:10F5BE00E9BC3404BDE4F0C6AEBDE4F88D2E1F13D5
:10F5CE00AE62A684A06124037EE6CE4CA1E42402A2
:10F5DE00A7E4A6611E89AE025A3A4D270DA1E42377
:10F5EE0002A6E41F891E31BDDCAE3596BDE3DF7E7B
:10F5FE00E8D8BDE4F3BDE98F3404BDE4F6BDE3DF26
:10F60E00BDE4F096062605BDE9922003BDE9283437
:10F61E0004E661BDE79335062705A7805A26FB7ED3
:10F62E00E91FBDE4F3BDE3DFC601340496062610E0
:10F63E00BDE992E7E42791BDE4F6BDE3DFBDE3CF7C
:10F64E009E523410BDE4F6BDF5FB3414BDE4F0AEAD
:10F65E0063BDE8DD3404E1662523A661271CE6665A
:10F66E005A3A3184EE62E661A6E4A0664CA16125A9
:10F67E000CA680A1C0260C5A26F7E666215F3267DB
:10F68E007EE7776C66302120D98126265C32620FA8
:10F69E00520F538E00529D7C814F27128148272393
:10F6AE009D82200C81381022EE47C6038D2A9D7C48
:10F6BE0025F20F500F510F060F630F54C6A0D74FF0
:10F6CE007EEC659D7C250BBDE62625E6814724E272
:10F6DE008007C6048D0220EB680169841025F5ECC5
:10F6EE005A26F58030AB01A7013935400F069E83AF
:10F6FE009D7C8126279981B0275E81FF26089D7CFF
:10F70E008183102700AB9F836EC49E68300126D97B
:10F71E00C6167EDF03AE9F00838CFF831027007416
:10F72E008D238DE6BDE4F3C680D708BDE5DB8D25C0
:10F73E00BDE4F0C6AEBDE4F89E4BDC83ED84DC394F
:10F74E00ED027EE18DC6B0BDE4F8C680D7088A8092
:10F75E00BDE5E09F4B7EE3CC8DEB3410BDE4EB8D2D
:10F76E00F43540C632AE4227A9109E83EEC4DF8325
:10F77E00A6043402EC84EE023476BDEE7EBDE3CAFE
:10F78E003576ED84EF023502A7049D821026ED61D9
:10F79E00109F83399D7C8D0934108D2D3540AFC45B
:10F7AE00395F9D7C240680301F899D7C9E8D583A42
:10F7BE00398DEEAE843410BDE4EB8E004F960627E5
:10F7CE0007BDE8DB9E52960639C6AEBDE4F87EE96B
:10F7DE00C11027EEEABDE214BDDFA29F939D8227E2
:10F7EE001081A7263B9D7C27048D24200486FF973D
:10F7FE002BDE938CEEC4ECC42706EC42932B23F441
:10F80E009E938D15BDDFC29E93BDDF927EDF22BD1E
:10F81E00E2147EDCB7A6C0A78011931B26F79F1BB0
:10F82E0039BDF7199D7C8122260BBDE4CDC63BBDAB
:10F83E00E4F8BDEBE8327EBDE2C93262BDE5DB9F86
:10F84E003BBDE3CF8E00F34FBDE7A07EE251BDE29C
:10F85E00149E2B399E919F2B7EDFA2BDDFC7CC005D
:10F86E000ADD95DD8F5FDD919D8224068DE09F95EB
:10F87E009D82271BBDE4F624068DD39F919D822782
:10F88E000EBDE4F624068DC69F8F2749BDDCB78DCD
:10F89E00C39F939E958DBF9C93253A8D1CBDF93EBB
:10F8AE00BDDF908DAF9F938D3A8D0F8D36BDF9D9FB
:10F8BE00BDDFC7BDDF907EDF22864F97989E93DC1B
:10F8CE00958D150D982602ED02AE848D0BD38F25E6
:10F8DE000481FA25EE7EE6CE3406EC843506260249
:10F8EE003262399E19301F30018DED30033001A682
:10F8FE008427F49F0F4A270C4A272A4A26EF8603AD
:10F90E00A78020E7EC016A0227014FE6036A04276D
:10F91E00015FED01DD2BBDDFA29E0F25E1DC476C03
:10F92E0080ED8420C66F84AE01AE029F4720EA9E12
:10F93E001920049E8330018D9F300230019F839DDC
:10F94E007C4D27EF2AF99E8381FF27EF81A2271294
:10F95E008184270E818126E79D7C81A0270481A1C9
:10F96E0026DB9D7C25049D8220D79E833410BDE22C
:10F97E00149E83A682BDFCE925F930011F10E061BB
:10F98E00C0052720250A3384503085BDF828201461
:10F99E009F479E1B9F435030859F419F1BBDDEDBC3
:10F9AE009E459F8335108601A784A702A704D62BF8
:10F9BE002604C6016C02E701D62C2604C6016C048F
:10F9CE00E7039D82812C279A209C9E19301F3001BF
:10F9DE00EC02DD68BDF8E730033001A68427EF4A5C
:10F9EE00271B800226F334108EFA36BDEBE5AEE40B
:10F9FE00EC01BDF015BDF00EBDEBA535103410ECCD
:10FA0E0001DD52BDF6C1BDF0223540C6053001A65E
:10FA1E008427055AA7C020F530C45D27BE31C433F4
:10FA2E00C5BDF82830A420B3554C2000BDE9C48EC6
:10FA3E0001F0C60434045F860408530952594A265D
:10FA4E00F85D260AA6E44A27058C01F0270CCB3078
:10FA5E00C1392302CB07E7806F8435045A26D5328D
:10FA6E00628E01EF7EE79C860197995ABDFC179D29
:10FA7E008210270093D793BDE3DFBDE3CF9E529F45
:10FA8E004DD699BDE931BDEBE89E52D699E0845A28
:10FA9E00102B014FBDEBF520F6D7939F0F860297E3
:10FAAE0099A684812527C4812026070C9930015AF6
:10FABE0026EF9E0FD6938625BDFC17BDDB1420299D
:10FACE0081B12701393262BDE3E1BDE3CFC63BBD53
:10FADE00E4F89E529F952006969727089E950F97BD
:10FAEE00E68426037EE6CEAE020F9A0F99A680819B
:10FAFE00211027FF728123275B5A2616BDFC17BDE6
:10FB0E00DB149D8226D296972603BDEBA59E957E8D
:10FB1E00E8DD812B2609BDFC178608979A20CC813B
:10FB2E002E274E81251027FF70A184268B81242736
:10FB3E0019812A26F6969A8A20979AC1022511A62D
:10FB4E00018124260B5A30010C99969A8A10979AA5
:10FB5E0030010C990F980C995A2749A680812E27AF
:10FB6E001E812327F1812C2621969A8A40979A206E
:10FB7E00E5A68481231026FF3F8601979830010C5D
:10FB8E00985A2720A680812327F5815E2616A18408
:10FB9E002612A101260EA102260AC1042506C004C2
:10FBAE0030040C9A301F0C99969A850826180A99DB
:10FBBE005D2713A684802D270681FE260986088AD6
:10FBCE00049A9A979A5A9D821027FF3CD793BDE3C9
:10FBDE00CA96999B9881111022EAE4BDFC24301F2D
:10FBEE00BDEBE50F979D82270D9797813B2705BDAE
:10FBFE00E4F620029D7C9E95E684D093AE023AD622
:10FC0E00931026FEE47EFB113402862B0D9A2703F9
:10FC1E00BDDB143582CE01F2C620969A85082702E6
:10FC2E00C62B0D542A040F54C62DE7C0C630E7C0AC
:10FC3E008401102601078EF009BDEEE92B15BDF0EB
:10FC4E0022A68026FCA682A7018C01F126F7862526
:10FC5E00A78439964F97472703BDFE0C9647102B66
:10FC6E000081409B998009BDFD29BDFEA2BDFE41CC
:10FC7E009647BDFEC09647BDFE8896982602335F16
:10FC8E004ABDFD29BDFDC44D2706C12A2702E7C086
:10FC9E006FC48E01F130019F0F963A901090992704
:10FCAE0038A684812027EE812A27EA4F3402A680C7
:10FCBE00812D27F8812B27F4910027F08130260E15
:10FCCE00A6018D1625083502A78226FA20C7350211
:10FCDE004D26FB9E0F8625A7823981302504803A5A
:10FCEE0080C639969827014A9B472B014F34022A2A
:10FCFE000A3402BDEDCB35024C20F49647A0E097B6
:10FD0E00478B092B199699800990478D0DBDFEA240
:10FD1E00201D34028630A7C035024A2AF53996993D
:10FD2E008DF8BDFE8C86F790478DEF0F450F97BD72
:10FD3E00FE4196982602DE399B4716FF43964F34B6
:10FD4E00022703BDFE0C969827014A9B997F01F16D
:10FD5E00D69AC40426037301F1BB01F18009340263
:10FD6E002A0A3402BDEDCB35024C20F4A6E42B0159
:10FD7E004F409B994CBB01F197450F97BDFE413506
:10FD8E0002BDFEC096982602335FE6E02709D647ED
:10FD9E00CB09D099F001F1862B5D2A03862D50A751
:10FDAE00418645A7C1862F4CC00A24FBCB3AEDC134
:10FDBE006FC47EFC938E01F2E68434048620D69ABC
:10FDCE00C52035042708862AC12026021F8934043F
:10FDDE00A780E6842710C145270CC13027F2C12C1D
:10FDEE0027EEC12E26048630A782969A8510270408
:10FDFE00C624E782840435042602E7823934404F54
:10FE0E009747D64FC18022118EF009BDED1396474C
:10FE1E00800920ECBDEDCB0C478EF004BDEEE92E33
:10FE2E00F38EEFFFBDEEE92E07BDEDB30A4720F1CD
:10FE3E0035C03440BDEBFDBDEF1135408EF10EC621
:10FE4E00808D369653AB0397539652A902975296CE
:10FE5E0051A90197519650A98497505C565928E3A1
:10FE6E002403C00B50CB2F30041F98847FA7C053A0
:10FE7E00C4808CF13226CA6FC40A452609DF398642
:10FE8E002EA7C00F97390A97260886039797862CB8
:10FE9E00A7C03996478B0A97454C800324FC8B05E7
:10FEAE009797969A8440260297973934028DCA35D1
:10FEBE00024A2B0A34028630A7C0A6E026ED39810D
:10FECE00891027F95C7EE500FFFFFFFFFFFFFFFFB4
:10FEDE00FFFFFFFFFFFFFFFFFFFFFFFFFFFFFFFF24
:10FEEE00FFFFFFFFFFFFFFFFFFFFFFFFFFFFFFFF14
:10FEFE00FFFFFFFFFFFFFFFFFFFFFFFFFFFFFFFF04
:10FF0E00FFFFFFFFFFFFFFFFFFFFFFFFFFFFFFFFF3
:10FF1E00FFFFFFFFFFFFFFFFFFFFFFFFFFFFFFFFE3
:10FF2E00FFFFFFFFFFFFFFFFFFFFFFFFFFFFFFFFD3
:10FF3E00FFFFFFFFFFFFFFFFFFFFFFFFFFFFFFFFC3
:10FF4E00FFFFFFFFFFFFFFFFFFFFFFFFFFFFFFFFB3
:10FF5E00FFFFFFFFFFFFFFFFFFFFFFFFFFFFFFFFA3
:10FF6E00FFFFFFFFFFFFFFFFFFFFFFFFFFFFFFFF93
:10FF7E00FFFFFFFFFFFFFFFFFFFFFFFFFFFFFFFF83
:10FF8E00FFFFFFFFFFFFFFFFFFFFFFFFFFFFFFFF73
:10FF9E00FFFFFFFFFFFFFFFFFFFFFFFFFFFFFFFF63
:10FFAE00FFFFFFFFFFFFFFFFFFFFFFFFFFFFFFFF53
:10FFBE00FFFFFFFFFFFFFFFFFFFFFFFFFFFFFFFF43
:10FFCE00FFFFFFFFFFFFFFFFFFFFFFFFFFFFFFFF33
:10FFDE00FFFFFFFFFFFFFFFFFFFFFFFFFFFFFFFF23
:10FFEE00FF0000009B009E00AA00A700A100A4DB5A
:02FFFE004600BB
:020000040001F9
:10000000080E0001B16F04012095C294CA9420919A
:10001000C290CA90000E186F000EC16E000EC96E1D
:10002000000E086F000EBF6E000EC76E000E106F40
:10003000000EC06E000EC86E3F0E0201046F040178
:100040000097C696970E436F000E446F040E456FDF
:10005000000E476F4691468B468F0091000E0201BD
:10006000016FBE80C690040100930183C68200998F
:100070000189C6880095000E0201036FBE84C694F4
:100080000401009B000E0201066FBE8AC69A010E93
:10009000D56FA00ED46FD189D18B0401009FC68E7D
:1000A000070E0201766F0401009DBE8CC69C260ED1
:1000B0000201076FD28F000E046E000E036E000E59
:1000C0000324016EC00E0420026E02C5C1F401C5F6
:1000D000BFF4BE94FF0E0324F66EBF0E0420F76E2D
:1000E0000800F5C4C0F4BE84034A042A400E045C30
:1000F000D8A0E5D7000E0401186F1969C968000E71
:10010000086F0969C768000E106F1169C868C2805E
:10011000010E0201616F1F0E636F1E0E646F040EED
:10012000656F1D0E676F1C0E686F000E0001D56FA6
:10013000350ED86F040ED96F000EDA6F370EDB6FF5
:10014000020EDC6F080EDD6F200EDE6F800EDF6F9B
:10015000800ED76F820ED66F010ED56F350ED86F19
:10016000040ED96F000EDA6F370EDB6F020EDC6FF4
:10017000040EDD6F200EDE6F800EDF6F800ED76FF6
:10018000820ED66F020ED56F020ED86F030ED96F96
:10019000060EDA6F070EDB6F020EDC6F040EDD6FEA
:1001A000200EDE6F400EDF6F800ED76F820ED66F8F
:1001B000040ED56F000ED86F350ED96F7F0EDA6F33
:1001C0007F0EDB6F010EDC6F040EDD6F000EDE6F45
:1001D000000EDF6F810ED76F8C0ED66F010E0201FD
:1001E000066F020E036F050E016F550E0401596F65
:1001F000AA0E596F5991080E5D6F000E5E6F000ECA
:100200005F6F550E596FAA0E596F5981B892A88227
:06021000D68EC284FFD768
:10021800B892D1C402F5CFC401F5CEB80BD0010411
:1002280005E1A00E0218D8B4D0C4C9F20001D785E0
:10023800D7951100000EC86EA00E02180110D8A4A0
:1002480003D0B7C4C0F40AD0010407E1A00E021815
:10025800D8A403D0C7C2C0F401D0C068CEA6FED7C8
:1002680000F00001D785D795CEB2FED7C868110037
:10027800026A016A0401080E5D6F000E5E6F000ECF
:0E0288005F6F000EF86E000100EF80F01100B5
:020000040020DA
:10000000FF0FFF0FFF0FFF0FFF0FFF0FFF0FFF0F80
:10001000FF0FFF0FFF0FFF0FFF0FFF0FFF0FFF0F70
:10002000FF0FFF0FFF0FFF0FFF0FFF0FFF0FFF0F60
:10003000FF0FFF0FFF0FFF0FFF0FFF0FFF0FFF0F50
:020000040030CA
:100000008C2FFFF79FFFFFFFFFFFFFFFFFFFFFFFAB
:10001000FFFFFFFFFFFFFFFFFFFFFFFFFFFFFFFFF0
:04002000FFFFFFFFE0
:00000001FF
