:0400000081EF00F09C
:10000800B948B948B948B9484000B9484000B94862
:10001800B948B948B948B948B948B948B948B948D0
:10002800B948400040004000B948B948B948B94803
:10003800B948B948B948B948B948B948B948B948B0
:10004800B948B948B948B94840004000B948B94822
:10005800B948B948B9484000B948B948B948B94851
:10006800B948B948B948B948B948B948B948B94880
:10007800B948B948B948B9484000B948B948B94831
:10008800B948B948B948B948B948B948B948B94860
:10009800B948B948B948B9484000B9484000400093
:1000A800B948F447B948B948B948B948B948B94806
:1000B800B948B948B948B948B948B948B948B94830
:1000C800B948B948B948B948B948B948B948B94820
:1000D800B948B948B948B948B948B948B948B94810
:1000E8004000B948B948B9484000400040004000C5
:0E00F800B948B948B948B948FF001DEF91F06A
:10BFDC000010CEC00017095C8E0000BF1F10BF1FE1
:10BFEC0027BF1F258653B71F297F1F2BCC0000FDB1
:10BFFC001F2CFD1F2EFD1F30FD1F32FD1F34FD1F9A
:10C00C0038FD1F3AC680FD1F3C10FF1F36B71F3E80
:10C01C008EC7EA17065434061043E161350626062E
:10C02C008EC84C4F200D113D018601B71F3E8EC8A6
:10C03C00558601B71F2B1706318EC80517062B170F
:10C04C0006808E1F001706C11706C94D27EB8144C9
:10C05C00274481471027013C81531027019B814CB9
:10C06C001027020481501027030781491027043040
:10C07C00814F1027044B81521027047F815A1027BF
:10C08C0005A9814210271FA3815710271F898EC82D
:10C09C00221705D620A3300117066E1706815D26E0
:10C0AC0016170665A6844D26E510BE1F1031A90093
:10C0BC008010BF1F12203210BF1F1017064BA68412
:10C0CC00812C270D4D26C731A9008010BF1F1220CF
:10C0DC0018300117063317064617062D5D27AF6D6E
:10C0EC008426AB312110BF1F12FC1F10C4F07F1F20
:10C0FC00241F0134108D23351030881017084D265D
:10C10C0010B61F24810225EBBE1F12BF1F1016FF95
:10C11C0028BF1F1017082A16FF1F1F1017055534AC
:10C12C00108EC82A1705433510108E1F14C6108D9B
:10C13C00285A26FB8EC82D1705308E1F14C610A644
:10C14C008081202509817F24051708062005862E6D
:10C15C001707FF5A26E916055F86201707F4B61F46
:10C16C00244D2617BC1F10270D86201707E4170730
:10C17C00E1A7A03001398601B71F24B61F24810125
:10C18C0026E7A680A7A01704EFBC1F12260586027F
:10C19C00B71F24393001170570170583A6841026A4
:10C1AC00FEEC5D270410BF1F3810FE1F36B61F2B88
:10C1BC0084012705FC1F3A1F07FC1F383406FC1F9F
:10C1CC00343406FC1F323406FC1F303406B61F3CD8
:10C1DC003402B61F2B84012713B61F3E8401270798
:10C1EC00FC1F2E34062005FC1F2E1F06FC1F2C34B2
:10C1FC0006B61F3D8A8034023B300117050B17052C
:10C20C001E170505A6841026FE845D260410BE1F8D
:10C21C00271F2017045E8EC82D17044EA6A41704E2
:10C22C0057862017072C1704998E1F001704DAA6BF
:10C23C00842608312110BF1F2720D6812D260831D6
:10C24C003F10BF1F2720CA812E260710BF1F27169D
:10C25C00FDE734201704C85D1027FE321F2035205F
:10C26C00E7A010BF1F2720A9300117049C1704AFAB
:10C27C001704966D841026FE151706C517049581B4
:10C28C00532779813A270D810D27EE810A27EA176A
:10C29C0006AF20F31703F8B71F4134021703F0B7AA
:10C2AC001F3FBB1F41B71F411703E4B71F40BB1F04
:10C2BC0041B71F411F20F31F3F1F011703D1B71FA9
:10C2CC002ABB1F41B71F4135045D27171703C03424
:10C2DC0002BB1F41B71F4135027D1F2A2602A780D2
:10C2EC005A26E91703A9BB1F4126087D1F2A279F41
:10C2FC007EC0688EC8081703717EC068170642B7E7
:10C30C001F2A17038A3402B71F41170382B71F3F36
:10C31C00BB1F41B71F41170376B71F40BB1F41B767
:10C32C001F411F20F31F3F1F013504C003271D179A
:10C33C00035D3402BB1F41B71F41B61F2A81312652
:10C34C00063502A780200235025A26E3170340BBAC
:10C35C001F4181FF2612B61F2A81372711813827EA
:10C36C000D813927097EC2BE8EC8151702FC7EC00E
:10C37C00683001A68417039C814927048153260544
:10C38C003001B71F291703811703945D271F10BFB6
:10C39C001F3F170374A684812C26123001170369E2
:10C3AC0017037C5D27071703606D8427037EC0BDD0
:10C3BC0031211F20B31F3FBE1F3FFD1F3F8D21B6F4
:10C3CC001F3FBA1F4026F6B61F29814926098EC881
:10C3DC00311702967EC0688EC83F17028D7EC068EA
:10C3EC00C6107D1F3F260BB61F403404A1E024026B
:10C3FC001F89B61F403404A0E0B71F40B61F3F8210
:10C40C0000B71F3FB61F2981492649863A170542B6
:10C41C001F98170263F71F413410A6E4170259A6A0
:10C42C00E0BB1F41B71F41A6E417024CA6E0BB1F9F
:10C43C0041B71F414F170240A6803402170239350D
:10C44C0002BB1F41B71F415A26EEB61F41401702CF
:10C45C00277EC6E786531704F986311704F41F9814
:10C46C008B03B71F411702103410A6E4170209A65C
:10C47C00E0BB1F41B71F41A6E41701FCA6E0BB1FA0
:10C48C0041B71F41A68034021701ED3502BB1F4195
:10C49C00B71F415A26EEB61F41431701DB7EC6E794
:10C4AC0030011702641702775D1027FBE117025960
:10C4BC006D841026FBD8A6A41701BD1701FA16FB34
:10C4CC007830011702431702565D1027FBC010BFCE
:10C4DC001F3F170234A680812C1026FBB1170229AE
:10C4EC0017023C5D1027FBA617021E6D841026FB5D
:10C4FC009DBE1F3F1F20E78416FB3E30011702092B
:10C50C001702118100260617008016FB2C108EC80E
:10C51C00C0A1A4270AE6211027FB73312620F2A61E
:10C52C0021810F260C10AE223001A6841701E520C4
:10C53C00E081001027FB57E621B61F2BC58027068C
:10C54C0085011027FB48AE2417011F863D170402F6
:10C55C00AE22C4073414C1012607A6841701192082
:10C56C0005EC8417010E86201703E71701548E1F64
:10C57C00001701AB5D27103514C10126061F20E7FB
:10C58C008420041F20ED8416FAAF8EC88D1700DAB4
:10C59C00B61F2C1700E28EC8901700CEB61F2D17B1
:10C5AC0000D6B61F2B840127188EC8941700BBB673
:10C5BC001F2E1700C38EC8981700AFB61F2F170079
:10C5CC00B78EC89C1700A3FC1F301700A78EC8A0FD
:10C5DC00170097FC1F3217009B8EC8A417008BFC0A
:10C5EC001F3417008F8EC8A817007FFC1F3617004A
:10C5FC00838EC8AC170073FC1F38170077B61F2B3F
:10C60C008401270C8EC8B2170060FC1F3A17006417
:10C61C008EC8B6170054B61F3C17005C8EC8BB17EB
:10C62C000048B61F3D17005016008D30011700D979
:10C63C008100260CB61F3E17003E17007B16F9F939
:10C64C001700DC5D1027FA461F20C1041024FA3EA7
:10C65C00F71F3E8E1F008611A780863DA780E780BE
:10C66C008639A78017586A16F9CFA6802705BDC949
:10C67C008120F7398D021F983402444444448D02C2
:10C68C003502840F8B30813A25028B077EC9814F8E
:10C69C008D044848484834021702A61700768130AA
:10C6AC002513813A250A8141250B814724078007F0
:10C6BC008030ABE039350239860DBDC981860A7EE2
:10C6CC00C9818E1F005FBDC970810D2737810A2774
:10C6DC003381082718817F2714812025E981802444
:10C6EC00E5C10F24E15CA780BDC98120D95D27D6A7
:10C6FC005A301F860817025A8620170255860817CB
:10C70C00025020C28DB26F8439A68081202602206F
:10C71C00F8301F3981612506817B24028BE0395F5B
:10C72C00108E0000A6848DEC81302523813A250AD9
:10C73C008141251B81472417800780301E025849F0
:10C74C005849584958491E2031A630015C20D5392A
:10C75C008EC85E17FF143502B71F3D3506FD1F2C22
:10C76C00B61F2B84012710B61F3E84012704350603
:10C77C0020021F60FD1F2E3502B71F3C3506FD1F22
:10C78C00303506FD1F323506FD1F3435068300019A
:10C79C00FD1F3810FF1F36B61F2B840127051F7095
:10C7AC00FD1F3A17FDE416F890113C8027058EC842
:10C7BC006420038EC87717FEB1209B0D0A556E6955
:10C7CC0076657273616C204D6F6E69746F72203672
:10C7DC003830390D0A005D20004572726F72206985
:10C7EC006865780D0A004572726F7220737265630A
:10C7FC000D0A004572726F720D0A00203A00203A41
:10C80C0020003A303030303030303146460D0A009E
:10C81C00533930333030303046430D0A004D4336F7
:10C82C003830390D0A004844363330390D0A00537C
:10C83C0057490D0A004469766973696F6E206279F5
:10C84C00207A65726F0D0A00496C6C6567616C200B
:10C85C00696E737472756374696F6E0D0A00413D75
:10C86C000020423D0020453D0020463D0020583D23
:10C87C000020593D0020553D0020533D000D0A502D
:10C88C00433D0020563D002044503D002043433D95
:10C89C000041011F2CC94442011F2DC946430FC939
:10C8AC00140000440FC926000045811F2EC94A46BA
:10C8BC00811F2FC94C57821F2EC94E58021F30C9D9
:10C8CC005059021F32C95255021F34C95453021F0A
:10C8DC0036C956500FC938000056821F3AC95B0042
:10C8EC00000000000000011F3DC96043011F3DC94D
:10C8FC006000000000000000021F2CC94850011FFE
:10C90C003CC95D00000000000043021F38C95800FC
:10C91C000000000000410042004400450046005762
:10C92C000058005900550053005043005600445025
:10C93C00004343008603B7801812128615B780187F
:10C94C0039B68018840127F9B6801939B680188455
:10C95C0001393402B68018840227F93502B78019E0
:10C96C003900000000000000000000000000000082
:10C97C0000000000000000000000000000000000AB
:10C98C00000000000000000000000000000000009B
:10C99C00000000000000000000000000000000008B
:10C9AC00000000000000000000000000000000007B
:10DFDC00008D0327FC39B6801885012706B68019F9
:10DFEC00847F394F398D243402810D270BB780196A
:10DFFC000C799679917825100F798D0F860DB78055
:10E00C00198D08860AB780193502393402B6801882
:10E01C00850227F935023910CE01EE7EE05A122620
:10E02C000A9E6FA684811226026E848E02186F835C
:10E03C00300126FA8E02176F809F19A60243A702A1
:10E04C00A10226063001630120F19F719F279F23B7
:10E05C003089FF389F211F148EE0D3CE0076C61274
:10E06C00BDE1B3CE00A7C604BDE1B3863997F0BDC0
:10E07C00E4BF8E00B59F8DCEEBD3C60AEF815A2636
:10E08C00FB8603B780188615B780188EE108BDF0A3
:10E09C00E78EE0CB9F6F8655976E200412BDE4D9B6
:10E0AC007EE4273B1040FF00EBD30C8426020C834C
:10E0BC00B600007EE1C47EE1C37EE0D27EEBD3806D
:10E0CC004FC7525932E222E32F1DE2C2E1D30000C6
:10E0DC0000000000000000000000363830392045F8
:10E0EC005854454E4445442042415349430D28431E
:10E0FC00292031393832204259204D4943524F534F
:10E10C004F46540D0D0034169E76DC789F6AD76C02
:10E11C00976D35960F738E00F4C601BDE000810833
:10E12C0026075A27EF301F20348115260A5A27E478
:10E13C008608BDE01420F681031A012705810D26FF
:10E14C000D4F3401BDF0A76F848E00F33581812013
:10E15C0025C9817B24C5C1FA24C1A7805CBDE0140C
:10E16C0020B92705BDEEC69F7A6E9F007A7EE5A882
:10E17C0096732603BDE0050F73975310260C6A9710
:10E18C00567EEE24A680A7C05A26F939399D8227DF
:10E19C00FB7EEA053B813A240A812026020E7C8014
:10E1AC003080D039F3C5F439F3DE00ADF66AF6BF32
:10E1BC00EED9EE0AEC86EE9FEE29EE15F76FF737E7
:10E1CC00F740F8B1F8E3F805FA6BF83FFF3DEE3491
:10E1DC00EE51EE58E19FEC77FA73FB33FB0379F1C8
:10E1EC001079F1077BF2177BF2DC7FF84850EA5E7E
:10E1FC0046EA5D464FD247CF5245CDA7454C53C555
:10E20C0049C6444154C15052494ED44FCE494E5048
:10E21C0055D4454EC44E4558D44449CD524541C4BD
:10E22C005255CE524553544F52C55245545552CE69
:10E23C0053544FD0504F4BC5434F4ED44C4953D4ED
:10E24C00434C4541D24E45D7455845C354524FCE09
:10E25C0054524F46C64445CC4445C64C494EC55213
:10E26C00454E55CD454449D4544142A854CF5355FD
:10E27C00C2544845CE4E4FD4535445D04F46C6ABEE
:10E28C00ADAAAFDE414EC44FD2BEBDBC46CE555337
:10E29C00494EC75347CE494ED44142D35553D2521F
:10E2AC004EC45349CE504545CB4C45CE535452A445
:10E2BC005641CC4153C3434852A44154CE434FD34F
:10E2CC005441CE4558D04649D84C4FC7504FD353E4
:10E2DC0051D2484558A44C454654A4524947485439
:10E2EC00A44D4944A4494E4B4559A44D45CD5641E6
:10E2FC00525054D2494E5354D2535452494E47A4BF
:10E30C00E4EDE638E695E695E695E6C6E692F06F1E
:10E31C00E6F4E7A1E5BFE886EAD7E7DBE62DE5A161
:10E32C00E672E5C3EEE0E5E8EEE7E5F9E4BDE19180
:10E33C00FA66FA67FCE2FC26FF81FD6CF8F24E46A9
:10E34C00534E52474F4446434F564F4D554C4253F4
:10E35C0044442F304944544D4F534C535354434E23
:10E36C004644414F444E494F464D4E4F4945445308
:10E37C0055464E45204552524F520020494E2000E2
:10E38C000D4F4B0D000D425245414B003064C612EF
:10E39C009F0FA68480802615AE019F119E3B2709F6
:10E3AC009C1127099E0F3A20E59E119F3B9E0F4D15
:10E3BC00398D17DE4133419E433001A68236029CD3
:10E3CC004726F8DF45394F58D31FC3003A250810AC
:10E3DC00DF1710931725EEC60CBDE4D9BDF0ABBD0D
:10E3EC00F0FA8EE36D3A8D318D2F8EE3A2BDF0E7FE
:10E3FC0096684C2703BDF510BDF0AB8EE3AFBDF0B6
:10E40C00E7BDE143CEFFFFDF6825F69F839D7C27A8
:10E41C00F0250BBDEF9C7EE576A6807EF0FCBDE77B
:10E42C00199E2B9FF1BDEF9CD7038D4C2512DC4719
:10E43C00A384D31BDD1BEE843702A7809C1B26F81C
:10E44C0096F3271CDC1BDD43DB038900DD41BDE3B8
:10E45C00E0CE00EF3702A7809C4526F89E419F1B1B
:10E46C008D368D02209B9E19EC8427213304A6C087
:10E47C0026FCEF84AE8420F0DC2B9E19EE84270959
:10E48C0010A3022306AE8420F31A019F473926FB02
:10E49C009E196F806F809F1B9E19BDE66D9E279FF6
:10E4AC0023BDE5A19E1B9F1D9F1F8E00C99F0BAE18
:10E4BC00E410DE216FE20F2D0F2E0F086E84868084
:10E4CC009708BDE73BBDE3BB326226049E0F328545
:10E4DC00C609BDE3F5BDE69ADC683416C6A0BDE9F5
:10E4EC00FDBDE8D1BDE8CFD654CA7FD450D750106B
:10E4FC008EE5257EE9788EF210BDF35F9D8281A4B6
:10E50C0026059D7CBDE8CFBDF3B8BDE974DC3B347A
:10E51C0006868034021CAF8D609E839F2FA68027B9
:10E52C0007813A27227EEA05A68197002772EC80A4
:10E53C00DD689F83968C270F865BBDE0149668BDC3
:10E54C00F517865DBDE0149D7C8D0220C827294DF2
:10E55C00102A01B881FF270F819E22C9BEE0F64820
:10E56C001F893A9D7C6E949D7C8197102714ED7EBB
:10E57C00EA059E19301F9F3339BDE005270A810338
:10E58C00271281132703977339BDE00527FB20EE73
:10E59C009D8220021A0126319E839F2F0600326233
:10E5AC009E688CFFFF27069F299E2F9F2D8EE3B31D
:10E5BC000D00102AFE427EE41C260EC6209E2D1055
:10E5CC0027FE169F839E299F6839272CBDEB6F343D
:10E5DC00069E279D82270CBDE9FBBDEEC6301F9C15
:10E5EC007122181F10A3E125121F0383003A250B7B
:10E5FC00931B2507DF219F277EE4CC7EE4069D82BA
:10E60C001027FE94BDE4CC20191F899D7CC1A02746
:10E61C0016C1A12645C603BDE3F5DE839E6886A11F
:10E62C0034528D037EE5449D82BDE7198D40300147
:10E63C00DC2B10936822029E19BDE4AB2517301F0A
:10E64C009F833926FD86FF973BBDE3BB1F148121B9
:10E65C00270BC6048CC60E7EE4087EEA0535529F55
:10E66C0068DF838D068C8D069F8339C63A865FD70B
:10E67C00015F9E831F98D6019701A68427EC340472
:10E68C00A1E027E63001812227EA4C2602300181E5
:10E69C008626E70C0420E3BDE8CF9D828181270507
:10E6AC00C6A2BDE9FD964F26130F048DB64D27BAB1
:10E6BC009D7C818426F50A042AF19D7C9D8210257F
:10E6CC00FF657EE57CBDEE94C681BDE9FD3402811B
:10E6DC00A1270481A026830A53260535047EE63A39
:10E6EC009D7C8D06812C27EF35849E749F2B246195
:10E6FC0080309701DC2B811822DB58495849D32BE9
:10E70C005849DB018900DD2B9D7C20E2BDEAE09FAE
:10E71C003BC6AEBDE9FD96063402BDE8E4350246C3
:10E72C00BDE8D610270C289E52DC2110A302241120
:10E73C009C1B250DE684BDEC969E4DBDEDCC8E004C
:10E74C00569F4DBDEDFEDE4D9E3B3726A78410AF88
:10E75C0002393F5245444F0D007EE40896092707C5
:10E76C009E319F687EEA058EE780BDF0E79E2F9F65
:10E77C008339C6169E68300127DF8D013981222628
:10E78C000BBDE9D2C63BBDE9FDBDF0EA8E00F36FCF
:10E79C00848D06C62CE7842016BDF0FABDF0F7BDBB
:10E7AC00E143240532647EE5CBC62E399E33864F79
:10E7BC0097099F35BDEAE09F3B9E839F2B9E35A614
:10E7CC0084260996092651BDF0FA8DCD9F839D7C38
:10E7DC00D60627239E8397018122270E301F4F9741
:10E7EC0001BDE135863A9701862C9702BDECA7BD99
:10E7FC00E9D7BDE7562006BDF45DBDF37E9D8227AB
:10E80C0006812C1026FF529E839F359E2B9F839D45
:10E81C00822721BDE9FB209C9F83BDE69A30014DE8
:10E82C00260AC606EE812741EC81DD31A68481865D
:10E83C0026E620989E35D6091026FD3AA684270692
:10E84C008EE8757EF0E7393F4558545241204947D0
:10E85C004E4F5245440D0026049E742003BDEAE041
:10E86C009F3BBDE3BB2704C60020471F143003BDEC
:10E87C00F35FA66897549E3BBDF10DBDF37E3069E6
:10E88C00BDF3E1E068270CAE6E9F68AEE8109F8385
:10E89C007EE54432E8129D82812C26F49D7C8DBD50
:10E8AC008D131CFE7D1A010D0625032A998C2B96BF
:10E8BC00C6187EE4088D6E4F8C34043402C601BD3C
:10E8CC00E3F5BDE9B10F3F9D8280AD251381032493
:10E8DC000F810149983F913F2564973F9D7C20E92A
:10E8EC00D63F26331024006B8B072467990610271C
:10E8FC00047789FF340248ABE08EE20D3086350296
:10E90C00A18424558D9C34028D299E3D3502261DF3
:10E91C004D1027006A204B0806598D098EE959D7EE
:10E92C003F0F0620D99E837EE66D64EA7DA1842488
:10E93C003120D3EC0134068D08D63F16FF7B7EEADE
:10E94C0005D654A68435203404D64F9E50DE52345E
:10E95C00546EA49E74A6E0272681642703BDE8D1DB
:10E96C009F3D3504815A2719817D271554D70A35C7
:10E97C0052975C9F5DDF5F3504D761D854D762D660
:10E98C004F39BDFBFB0F069D7C24037EF45DBDEB74
:10E99C002B2450812E27F481A7274081A627E381C1
:10E9AC0022260A9E83BDECA19E649F833981A326F7
:10E9BC000D865ABDE8E8BDEB7643537EEC7D4C27C3
:10E9CC002E8D06BDE8E4C6298CC6288CC62CE19F8A
:10E9DC00008326020E7CC6027EE408867DBDE8E834
:10E9EC007EF634BDEAE09F52960626957EF35F9D37
:10E9FC007C1F89589D7CC13823037EEA053404C1F1
:10EA0C002A251EC130241C8DC0A6E4BDE8E48DBCB3
:10EA1C00BDE8D43502DE523442BDEE9435023406E4
:10EA2C008E8D9E3504BEE0FB3AAD947EE8D1864FC8
:10EA3C009703BDEB76DD01BDF395BDEB760D03269B
:10EA4C00069401D40220049A01DA027EEC7DBDE822
:10EA5C00D6261096618A7F945D975D8E005CBDF31F
:10EA6C00E120360F060A3FBDEDE0D7569F589E5F5A
:10EA7C00BDEDE296563404A0E0270786012403D6A8
:10EA8C0056409754DE585C5A2604D654200BA68068
:10EA9C00A1C027F3C6FF240150CB0159D40A270289
:10EAAC00C6FF7EF3C7BDE9FBC6018D089D8226F526
:10EABC00395F9D82D70597379D828D401025FF16B3
:10EACC005FD7069D7C25048D33250A1F899D7C25E7
:10EADC00FC8D2924F8812426060306CB809D7CD747
:10EAEC00389A088028102700750F089E1BDC379C6D
:10EAFC001D271210A381273E300520F381412504E8
:10EB0C00805B80A5398E0074EEE41183EA1527280A
:10EB1C00DC1FDD43C30007DD419E1D9F47BDE3E0C5
:10EB2C009E419F1F9E459F1D9E47DC37ED814F5F89
:10EB3C00ED84ED02A7049F393990800000009D7C84
:10EB4C00BDE8CF96542B5DBDE8D1964F819025083A
:10EB5C008EEB68BDF3E1264CBDF413DC5239DC05B9
:10EB6C003406125F9E3734148DD435349F37DE5201
:10EB7C0034605C9D82812C27EBD703BDE9F535060B
:10EB8C00DD059E1D9C1F2721DC3710A3842706EC76
:10EB9C0002308B20EFC6129605260BD603E1042714
:10EBAC0059C6108CC6087EE408CC0005DD64DC3741
:10EBBC00ED84D603E704BDE3F59F41C60B4F0D056D
:10EBCC0027053506C30001ED058D5DDD6430020AB5
:10EBDC000326E89F0FD30F1025F7FC1F01BDE3F9A7
:10EBEC00830035DD1F4F301FA7059C0F26F89E4173
:10EBFC00961F9341ED029605262DE604D7034F5F31
:10EC0C00DD643506DD5210A305243ADE6427048D3D
:10EC1C0017D35230020A0326E7EDE358495849E36B
:10EC2C00E1308B30059F393986109745EC05DD179F
:10EC3C004F5F5849250F086509642404D31725052F
:10EC4C000A4526EE397EEBD01F40931F214F0F064D
:10EC5C00DD50C6907EF3CDBDE8D1CE01F0BDF527D9
:10EC6C0032628E01EF200B9F4D8D5C9F58D7563929
:10EC7C00301F86229701970230019F629F58C6FF72
:10EC8C005CA680270C91012704910226F381222790
:10EC9C0002301F9F64D756DE62118301F022078D6C
:10ECAC00C69E62BDEDCE9E0B8C00F12605C61E7E67
:10ECBC00E4089656A700DC58ED0286FF97069F0DD8
:10ECCC009F5230059F0B390F074F3406DC23A3E00E
:10ECDC00109321250ADD239E2330019F253584C600
:10ECEC001A030727CA8D04350420DE9E279F234F65
:10ECFC005FDD4B9E219F478E00C99C0B27048D32F4
:10ED0C0020F89E1B9C1D27048D2220F89F419E41BC
:10ED1C009C1F2735EC02D341DD41A6012AF0E60405
:10ED2C0058CB053A9C4127E88D0820F8A601300203
:10ED3C002A14E6842710EC0210932322091093471F
:10ED4C0023049F4BDD473005399E4B27FB4FE68450
:10ED5C005AD347DD439E239F41BDE3E29E4BDC45E6
:10ED6C00ED029E45301F7EED1CDC523406BDE9B130
:10ED7C00BDE8D435109F62E6849E52EB842405C610
:10ED8C001C7EE408BDEC969E62E6848D109E4D8D33
:10ED9C00228D0C9E628D1CBDECD57EE8F6AE02DE9B
:10EDAC00255C2004A680A7C05A26F9DF2539BDE8CA
:10EDBC00D49E52E6848D182613AE07301F9C232652
:10EDCC00083404D323DD233504300139AE02399CD9
:10EDDC000D26079F0B301B9F0D4F398D037EEC7C4E
:10EDEC008DCC0F065D39BDEE97C601BDECF6965382
:10EDFC00BDEC9AA78432627EECD58D0220DF8DE0CB
:10EE0C00275EE684398D484FE1842303E6844F3432
:10EE1C0006BDEC989E4D8D9B35043A3504BDEDCE68
:10EE2C0020D58D2BA0844020DFC6FFD7539D828137
:10EE3C00292705BDE9FB8D2D8D1527245F4AA1845B
:10EE4C0024CD1F89E08450D15323C4D65320C0BD98
:10EE5C00E9F5EEE4AE659F4DA664E66432671F35B6
:10EE6C007EEBD39D7CBDE8CFBDEB724D26F20E82BE
:10EE7C00BDEE0F102702DEDE839F833AA684345248
:10EE8C006F849D82BDF45D3552A784DF83398D0775
:10EE9C009F2BBDE9FB20CEBDE8CF96542BC2964FDD
:10EEAC00819022BCBDF4139E52398DEEE6847EEC2B
:10EEBC007C8DDB9E2BE784393401BDE719BDE4A7BB
:10EECC009F66350127129D82271381A726099D7CF9
:10EEDC002706BDE719270639CEFFFFDF2B32629ECE
:10EEEC0066BDF0ABBDE19CEC8426037EE4279F66F7
:10EEFC00EC0210932B22F4BDF517BDF0F79E668D36
:10EF0C0010AE9F0066CE00F4A6C027D5BDF0FC2045
:10EF1C00F73004108E00F4A68027512B15813A2669
:10EF2C000DE684C18427F0C18327EC8C86218D30BB
:10EF3C0020E5CEE0E981FF2604A6803345847F33AB
:10EF4C004A6DC427E7A0C42AF6ABC4EE414A2B068F
:10EF5C006DC02AFC20F7A6C48D066DC02AF820B718
:10EF6C00108C01ED2406847FA7A06FA4399E83CE5C
:10EF7C0000F30F430F44A68027210D43270FBDEB51
:10EF8C002B241881302504813923100F438120272D
:10EF9C000A9742812227380D442719A7C0270681DA
:10EFAC003A27CF20D16FC06FC01F308300F18E0085
:10EFBC00F29F8339813F2604868720DF8127261321
:10EFCC00CC3A83EDC10F42A68027D0914227CCA723
:10EFDC00C020F481302504813C25C0301F34500FF3
:10EFEC0041CEE0E90F42334AA6C4273110AE41AE00
:10EFFC00E4E6A0E08027FAC180263832623540DA98
:10F00C004296412606C1842606863AEDC12094E735
:10F01C00C0C18626020C44C18227AA2086CEE0EE0F
:10F02C00034126C03550A680A7C0BDEB2B25EC03B1
:10F03C004320E80C424A27AE313FE6A02AFC20AF21
:10F04C0027368D0139273E819F2753812C27378105
:10F05C003B2760BDE8E4960634022606BDF524BDC8
:10F06C00EC9F8D573504BDE1355D26089D82812CC2
:10F07C0027148D549D8226CF860D2051BDE1352756
:10F08C00F7966C26F339BDE135270AD66CD16B2582
:10F09C00068DE5201ED66CD06A24FC502010BDEEE7
:10F0AC009281291026F92FBDE135D06C23058D18DE
:10F0BC005A26FB9D7C7EF074BDECA1BDEDE05C5A44
:10F0CC0027C3A6808D0720F786208C863F7EE01410
:10F0DC008EF60B2009BDF27A035403622003BDF2B5
:10F0EC007A5D102702808E005C1F895D276CD04FE3
:10F0FC002769250A974F966197548E004F50C1F897
:10F10C002F594F6401BDF205D6622A0B63016302CD
:10F11C0063036304438900976396539960975396EE
:10F12C0052995F97529651995E97519650995D9767
:10F13C00505D2A4425028D5D5F9650262E96519780
:10F14C00509652975196539752966397530F63CBA1
:10F15C0008C1282DE44F974F9754398D6D5F20A827
:10F16C005C086309530952095109502AF3964F342C
:10F17C0004A0E0974F23DE8C250808638600976374
:10F18C00200C0C4F27280650065106520653240417
:10F19C008D0D27EE39035403500351035203539E34
:10F1AC005230019F5226069E5030019F5039C60A9C
:10F1BC007EE4088E0012A6049763A603A704A60299
:10F1CC00A703A601A702965BA701CB082FE89663BD
:10F1DC00C008270C6701660266036604465C26F4C9
:10F1EC003981000000008D6327608D7886009713AD
:10F1FC00971497159716D6538D22D663D78BD65264
:10F20C008D1AD663D78AD6518D12D663D789D6502C
:10F21C008D0CD663D788BDF3567EF1672795439640
:10F22C0013562726241696169B6097169615995FEB
:10F23C0097159614995E97149613995D4697130635
:10F24C00140615061606634F20D539EC0197618A12
:10F25C0080DD5DD661D854D762EC03DD5FA6849760
:10F26C005CD64F394D27169B4F464928108B8097FB
:10F27C004F270C96629754399654432002326210F1
:10F28C002AFED27EF1DDBDF3AA270D8B0225F40FE9
:10F29C0062BDF1180C4F27EB398420000000BDF340
:10F2AC00AA8EF2C85FD762BDF35F8C8D9E27730068
:10F2BC004F8DB10C4F27CC8E0013C604D703C6015B
:10F2CC009650915D26139651915E260D9652915F44
:10F2DC002607965391602601431FA859240AE780FC
:10F2EC000A032B34272EC6011F8A250E0860095FDE
:10F2FC00095E095D25E32BC820DF9660905397606B
:10F30C00965F9252975F965E9251975E965D925081
:10F31C00975D20D8C64020D0565656D7638D087EB0
:10F32C00F167C6147EE4089E139F509E159F5239B8
:10F33C003402EC0197548A80DD500F63E684AE03EF
:10F34C009F52D74F35828E004520068E00408C9EF2
:10F35C003B964FA78496548A7F9450A7019651A749
:10F36C0002DE52EF0339966197549E5C9F4F0F63F8
:10F37C00965E975196549E5F9F5239DC4FDD5C9E92
:10F38C00519F5E9E539F604D39D64F2708D65459D6
:10F39C00C6FF250150398DF1D7500F51C6889650B4
:10F3AC008080D74FDC74DD52976397547EF1630FE6
:10F3BC005439E68427D3E601D8542BD1D64FE184B7
:10F3CC00261DE601CA7FD450E1012613D651E10275
:10F3DC00260DD652E1032607D653E00426013956F2
:10F3EC00D85420ABD64F273DC0A096542A05035BBA
:10F3FC00BDF1C68E004FC1F82E06BDF1F90F5B3979
:10F40C000F5B96544906507EF205D64FC1A0241DC1
:10F41C008DD2D7639654D754808086A0974F96533D
:10F42C0097017EF163D750D751D752D753399E7479
:10F43C009F549F4F9F519F529F479F452564BDFBF3
:10F44C009A812D260403552004812B26049D7C25AE
:10F45C0051812E2728814526289D7C256481A7274C
:10F46C000E812D270A81A62708812B27042006034D
:10F47C00489D7C254C0D4827080047200403462650
:10F48C00CC96479045974727122A09BDF2CD0C47D9
:10F49C0026F92007BDF2B50A4726F996552A8E7E25
:10F4AC00F634D645D046D7453402BDF2B53504C046
:10F4BC00308D022098BDF37ABDF3C78E00407EF1EB
:10F4CC000DD6475858DB475880303404ABE097478B
:10F4DC00209F9B3EBC1FFD9E6E6B27FD9E6E6B2876
:10F4EC00008EE3A98D0CDC68DD50C69043BDF3D1D2
:10F4FC008D037EF0E7CE01F18620D6542A02862DAC
:10F50C00A7C0DF6497548630D64F102700C64FC172
:10F51C008022088EF50BBDF21586F797458EF50601
:10F52C00BDF3EB2E0F8EF501BDF3EB2E0EBDF2B538
:10F53C000A4520F1BDF2CD0C4520E2BDF0FFBDF433
:10F54C0013C60196458B0A2B09810B24054A1F898A
:10F55C0086024A4A9747D7452E0DDE64862EA7C0F1
:10F56C005D27048630A7C08EF610C6809653AB0379
:10F57C0097539652A90297529651A90197519650BA
:10F58C00A98497505C565928E32403C00B50CB2F09
:10F59C0030041F98847FA7C00A452604862EA7C076
:10F5AC0053C4808CF63426C4A6C2813027FA812E2F
:10F5BC002602335F862BD647271C2A03862D50A79D
:10F5CC00428645A741862F4CC00A24FBCB3AED431B
:10F5DC006F452004A7C46F418E01F13980000000F3
:10F5EC0000FA0A1F0000989680FFF0BDC00001864B
:10F5FC00A0FFFFD8F0000003E8FFFFFF9C00000015
:10F60C000AFFFFFFFF964F27020354399F64BDF397
:10F61C007A8D058D088E00407EF2159F64BDF375C2
:10F62C009E64E680D7559F648DEE9E6430059F6482
:10F63C00BDF10D8E00450A5526EE39BDF3B82B1FD2
:10F64C0027158D10BDF37A8D0E8E00408DCA8EF26B
:10F65C0010BDF10D7EF4399EB19F509EB39F52BEEA
:10F66C00F6BB9F5DBEF6BD9F5FBDF21BDC8AC3651A
:10F67C008BDDB3DD52DC88C9B08905DDB1DD500FFF
:10F68C00548680974F961597637EF16740E64DAB95
:10F69C00BDF3AA8EF704D661BDF2D4BDF3AA8DB426
:10F6AC000F62965CD64FBDF1078EF709BDF104963B
:10F6BC005434022A09BDF0FF96542B05030ABDF6FB
:10F6CC00348EF709BDF10D35024D2A03BDF6348E8B
:10F6DC00F70E7EF63B83490FDAA27F00000000058F
:10F6EC0084E61A2D1B862807FBF887996889018701
:10F6FC002335DFE186A55DE72883490FDAA2A15403
:10F70C00468F138F524389CD8EF76ABDF10D7EF66D
:10F71C00BFBDF37A0F0A8DF68E004ABDF3808E00C2
:10F72C0040BDF35F0F54960A8D0C0D4F1027FA7ED7
:10F73C008E004A7EF2DA34027EF6ED81490FDAA2AF
:10F74C00965434022A028D24964F34028181250569
:10F75C008EF2108DDE8EF79FBDF63B350281812532
:10F76C00068EF76ABDF10435024D2A037EF6343954
:10F77C000B76B383BDD3791EF4A6F57B83FCB01056
:10F78C007C0C1F67CA7CDE53CBC17D1464704C7D2E
:10F79C00B7EA517A7D6330887E7E9244993A7E4CEA
:10F7AC00CC91C77FAAAAAA138100000000037F5E38
:10F7BC0056CB7980139B0B6480763893168238AACB
:10F7CC003B20803504F334813504F3348080000011
:10F7DC000080317217F8BDF3B8102FF3C78EF7F114
:10F7EC00964F808034028680974FBDF10D8EF7F6D0
:10F7FC00BDF2DA8EF210BDF1048EF7DCBDF63B8E55
:10F80C00F7FBBDF10D3504BDF4E48EF8007EF21566
:10F81C00BDF3AA8EF60BBDF35F27674D26037EF171
:10F82C00858E004ABDF3805F96612A10BDF4398E37
:10F83C00004A9661BDF3EB260343D601BDF3973422
:10F84C0004BDF8058E004ABDF2158D363502461002
:10F85C0025FDB2398138AA3B29077134583E5674BC
:10F86C00167EB31B772FEEE3857A1D841C2A7C63EE
:10F87C0059580A7E75FDE7C6803172181081000058
:10F88C0000008EF883BDF215BDF37A964F81882562
:10F89C00037EF2A7BDF43996018B8127F44A34021A
:10F8AC008E0040BDF1048EF888BDF64A0F62350219
:10F8BC00BDF29339BDF3B82B037EF43903548DF9A3
:10F8CC007EF634BDFD20326286019798BDE4A71008
:10F8DC0025ED82BDEF401F208300F5D797DC2BBDB3
:10F8EC00F517BDF0F78E00F4D69826255FBDFA46C5
:10F8FC00BDFF78250B80303402860A3DEBE020ED0D
:10F90C00C001C90181412605BDF0A720BB814C2651
:10F91C000B8D310F98BDF0A720C33262810D260DDF
:10F92C008D22BDF0A78E00F49F837EE45081452785
:10F93C00F181512606BDF0A77EE4278D0220AD8112
:10F94C002026108CC6F9A6842708BDE01430015A75
:10F95C0026F439814426486D8427F78D045A26F7FE
:10F96C00390A97311F3121A621A7A426F8398149DC
:10F97C0027138158270D8148265C6F841F10830044
:10F98C00F5D7978DBFBDFA46810D278E811B272594
:10F99C00810826228C00F427EC8D458DC420E6814D
:10F9AC004326CB6D84270EBDFA46250220F5A78091
:10F9BC008D375A26EE39D697C1F9260220C7341056
:10F9CC006D8026FCE682E701ACE426F83262A78063
:10F9DC008D170C9720AF810826128D045A26FB39FF
:10F9EC008C00F427D0301F86087EE014814B27054D
:10F9FC00805327013934028D1E3402A68427166DDC
:10FA0C006126068DE430012003BDF990A684A1E4A3
:10FA1C0026E95A26E635A0BDE000817F24F9815FF6
:10FA2C002602861B810D270E811B270A81082706BB
:10FA3C00812025E31A0139864F978C398600D679B7
:10FA4C001D7EEC7DBDE9F8DC1F3406BDEAE0BDE9A6
:10FA5C00F535061E109C1F26517EEC7D9D7CBDE964
:10FA6C00F8BDEAE03410EC02109321230493272311
:10FA7C0012E684BDECF63410AE62BDEDCC3550AF61
:10FA8C00423440BDEEC134045D271FC6FF812927D7
:10FA9C0003BDEEC13404BDE9F5C6AEBDE9FD8D2E46
:10FAAC001F13AE62A684A06124037EEBD34CA1E4A9
:10FABC002402A7E4A6611E89AE025A3A4D270DA175
:10FACC00E42302A6E41F891E31BDE1B33596BDE8DF
:10FADC00E47EEDDDBDE9F8BDEE943404BDE9FBBD7B
:10FAEC00E8E4BDE9F596062605BDEE972003BDEECC
:10FAFC002D3404E661BDEC9835062705A7805A26FF
:10FB0C00FB7EEE24BDE9F8BDE8E4C601340496069C
:10FB1C002610BDEE97E7E42791BDE9FBBDE8E4BDF7
:10FB2C00E8D49E523410BDE9FBBDFAFD3414BDE996
:10FB3C00F5AE63BDEDE23404E1662523A661271C16
:10FB4C00E6665A3A3184EE62E661A6E4A0664CA100
:10FB5C0061250CA680A1C0260C5A26F7E666215F0B
:10FB6C0032677EEC7C6C66302120D98126265C3293
:10FB7C00620F520F538E00529D7C814F2712814889
:10FB8C0027239D82200C81381022EE4AC6038D2A31
:10FB9C009D7C25F20F500F510F060F630F54C6A01A
:10FBAC00D74F7EF1679D7C250BBDEB2B25E681475E
:10FBBC0024E28007C6048D0220EB680169841025BD
:10FBCC00F5EC5A26F58030AB01A7013935400F060C
:10FBDC009E839D7C8126279981B0275E81FF260814
:10FBEC009D7C8183102700AB9F836EC49E6830017F
:10FBFC0026D9C6167EE408AE9F00838CFF8310279F
:10FC0C0000748D238DE6BDE9F8C680D708BDEAE007
:10FC1C008D25BDE9F5C6AEBDE9FD9E4BDC83ED84BB
:10FC2C00DC39ED027EE692C6B0BDE9FDC680D70890
:10FC3C008A80BDEAE59F4B7EE8D18DEB3410BDE99F
:10FC4C00F08DF43540C632AE4227A9109E83EEC427
:10FC5C00DF83A6043402EC84EE023476BDF380BD5F
:10FC6C00E8CF3576ED84EF023502A7049D8210268D
:10FC7C00ED64109F83399D7C8D0934108D2D35409A
:10FC8C00AFC4395F9D7C240680301F899D7C9E8D7E
:10FC9C00583A398DEEAE843410BDE9F08E004F9693
:10FCAC00062707BDEDE09E52960639C6AEBDE9FDAE
:10FCBC007EEEC61027EEEDBDE719BDE4A79F939D20
:10FCCC0082271081A7263B9D7C27048D2420048647
:10FCDC00FF972BDE938CEEC4ECC42706EC42932BDF
:10FCEC0023F49E938D15BDE4C79E93BDE4977EE4EB
:10FCFC0027BDE7197EE1BCA6C0A78011931B26F790
:10FD0C009F1B39BDFC1B9D7C8122260BBDE9D2C6F5
:10FD1C003BBDE9FDBDF0EA327EBDE7CE3262BDEA05
:10FD2C00E09F3BBDE8D48E00F34FBDECA57EE756BB
:10FD3C00BDE7199E2B399E919F2B7EE4A7BDE4CC89
:10FD4C00CC000ADD95DD8F5FDD919D8224068DE070
:10FD5C009F959D82271BBDE9FB24068DD39F919D0A
:10FD6C0082270EBDE9FB24068DC69F8F2749BDE176
:10FD7C00BC8DC39F939E958DBF9C93253A8D1CBDC6
:10FD8C00FE40BDE4958DAF9F938D3A8D0F8D36BDA2
:10FD9C00FEDBBDE4CCBDE4957EE427864F97989EB0
:10FDAC0093DC958D150D982602ED02AE848D0BD348
:10FDBC008F250481FA25EE7EEBD33406EC843506D0
:10FDCC0026023262399E19301F30018DED3003301E
:10FDDC0001A68427F49F0F4A270C4A272A4A26EFAC
:10FDEC008603A78020E7EC016A0227014FE6036A2D
:10FDFC000427015FED01DD2BBDE4A79E0F25E1DC9F
:10FE0C00476C80ED8420C66F84AE01AE029F472004
:10FE1C00EA9E1920049E8330018D9F300230019F91
:10FE2C00839D7C4D27EF2AF99E8381FF27EF81A2CA
:10FE3C0027128184270E818126E79D7C81A02704CF
:10FE4C0081A126DB9D7C25049D8220D79E833410C6
:10FE5C00BDE7199E83A682BDFF7825F930011F10DE
:10FE6C00E061C0052720250A3384503085BDFD2A6A
:10FE7C0020149F479E1B9F435030859F419F1BBD65
:10FE8C00E3E09E459F8335108601A784A702A70453
:10FE9C00D62B2604C6016C02E701D62C2604C6011B
:10FEAC006C04E7039D82812C279A209C9E19301F9D
:10FEBC003001EC02DD68BDFDE930033001A684277A
:10FECC00EF4A271B800226F334108EFF38BDF0E773
:10FEDC00AEE4EC01BDF517BDF510BDF0A73510343F
:10FEEC0010EC01DD52BDFBC3BDF5243540C6053019
:10FEFC0001A68427055AA7C020F530C45D27BE3162
:10FF0C00C433C5BDFD2A30A420B3554C2000BDEE32
:10FF1C00C98E01F0C60434045F8604085309525993
:10FF2C004A26F85D260AA6E44A27058C01F0270C20
:10FF3C00CB30C1392302CB07E7806F8435045A26B6
:10FF4C00D532628E01EF7EECA181302504803A809F
:10FF5C00C63981891027FDAB7EEA05000000000040
:10FF6C000000000000000000000000000000000085
:10FF7C000000000000000000000000000000000075
:10FF8C000000000000000000000000000000000065
:10FF9C000000000000000000000000000000000055
:10FFAC000000000000000000000000000000000045
:10FFBC000000000000000000000000000000000035
:10FFCC0000C7D8009B009E00AA00A7C77F00A4E032
:10FFDC00460D0A4D455A3638303952414D200025D0
:10FFEC00322E33664D487A0D0A00696E66006E61DA
:03FFFC006E000094
:020000040001F9
:10000000000E816F57C584F558C585F559C586F52D
:100010005AC587F587AF14D0010E816F84C501F5ED
:1000200085C502F586C503F587C504F506EC91F094
:1000300001C584F502C585F503C586F504C587F5B8
:10004000000E836F000E826FC2C571F5C3C572F5D5
:100050008151D8B40DD08151D8A404D0000E676F5F
:100060002B0E03D0000E676F2D0E666F66C581F5EF
:1000700084C501F585C502F586C503F587C504F578
:100080006AEC8EF001040210D8A42CD00501815135
:10009000D8B409D081C500F67107D8A07207000E48
:1000A000836F010E826F000E8225016E060E832182
:1000B000026EF60E036EFF0E046EB4EC90F0FD0EB1
:1000C0007127FF0E722355C512F556C513F5000EA4
:1000D000146E060E156E71C516F572C517F572EC25
:1000E0008FF0120084C501F585C502F586C503F5BC
:1000F00087C504F56AEC8EF001500210D8A42CD00C
:1001000005018151D8B409D081C500F67107D8A086
:100110007207000E836F010E826F000E8225016E42
:10012000060E8321026EFA0E036EFF0E046EB4EC0F
:1001300090F0FD0E7127FF0E722355C512F556C5BE
:1001400013F5000E146E060E156E71C516F572C508
:1001500017F572EC8FF01200000E0501886F000E8B
:10016000896F800E8A6F3F0E8B6F000E706F000ECE
:100170006F6F84C501F585C502F586C503F587C592
:1001800004F5000E056E000E066E000E076E000EE2
:10019000086E2DEC8FF0D8A00CD0BED073C588F5BA
:1001A00074C589F575C58AF576C58BF505016F4B64
:1001B000702B88C50FF589C510F58AC511F58BC55B
:1001C00012F5000E136E000E146E200E156E410E09
:1001D000166E9EEC87F00FC573F510C574F511C54A
:1001E00075F512C576F505017351845D016E745184
:1001F0008559026E75518659036E76518759046E82
:100200001EEC90F004BECAD704500310021004E1A3
:10021000020E015CD8A0C2D773C528F574C529F5B4
:1002200075C52AF576C52BF584C52CF585C52DF544
:1002300086C52EF587C52FF502EC8EF0D8A0AED777
:1002400005018851845D016E89518559026E8A517C
:100250008659036E8B518759046E1EEC90F004BED4
:1002600008D004500310021043E1020E015CD8B024
:100270003FD088C584F589C585F58AC586F58BC5C7
:1002800087F54AD088C528F589C529F58AC52AF594
:100290008BC52BF5000E2C6E000E2D6E200E2E6ED3
:1002A000410E2F6EBAEC8AF028C588F529C589F56C
:1002B0002AC58AF52BC58BF505016F07D8A07007F5
:1002C0008851845D016E89518559026E8A51865923
:1002D000036E8B518759046E1EEC90F004BEC9D793
:1002E00004500310021004E1020E015CD8A0C1D733
:1002F00084C528F585C529F586C52AF587C52BF55A
:1003000088C52CF589C52DF58AC52EF58BC52FF529
:1003100002EC8EF0D8A0B6D75BC569F569C56AF561
:100320000501C5BF05D0C4C562F5C5C563F504D0D8
:10033000000E636F060E626F62C56DF563C56EF5E4
:100340006D4B6E2B660E6A19D8A416D070AF0CD008
:10035000000E886F000E896F800E8A6F3F0E8B6FC4
:10036000000E706F000E6F6F670E6919D8B404D05D
:100370006F516D2770516E23000E786F000E776FEE
:1003800084C579F585C57AF586C57BF587C57CF585
:1003900088C573F589C574F58AC575F58BC576F57D
:1003A0007BD079C528F57AC529F57BC52AF57CC5AA
:1003B0002BF588C52CF589C52DF58AC52EF58BC57D
:1003C0002FF5BAEC8AF028C541F529C542F52AC5B2
:1003D00043F52BC544F5FEEC8BF041C57DF542C5D8
:1003E0007EF543C57FF544C580F57DC501F57EC525
:1003F00002F57FC503F580C504F5D0EC8EF001C58C
:100400006BF502C56CF579C528F57AC529F57BC56C
:100410002AF57CC52BF57DC513F57EC514F57FC582
:1004200015F580C516F588C50FF589C510F58AC57F
:1004300011F58BC512F59EEC87F00FC52CF510C594
:100440002DF511C52EF512C52FF56FEC90F028C5CE
:1004500079F529C57AF52AC57BF52BC57CF588C5C4
:1004600028F589C529F58AC52AF58BC52BF5000E17
:100470002C6E000E2D6E200E2E6E410E2F6EBAECDD
:100480008AF028C588F529C589F52AC58AF52BC5BE
:100490008BF50501774B782B6D51775D7851800A8C
:1004A0005C6E6E51800A5C58D8A07BD788C50FF56A
:1004B00089C510F58AC511F58BC512F5000E136EAE
:1004C000000E146EA00E156E400E166E9EEC87F098
:1004D0000FC57DF510C57EF511C57FF512C580F5F8
:1004E00079C528F57AC529F57BC52AF57CC52BF594
:1004F0007DC52CF57EC52DF57FC52EF580C52FF564
:1005000002EC8EF0D8B003D0000E050118D079C5EA
:1005100001F57AC502F57BC503F57CC504F57DC5FB
:1005200005F57EC506F57FC507F580C508F52DECF8
:100530008FF0D8A00BD005016BB108D0000E7D6FF5
:10054000000E7E6F000E7F6F000E806F84C501F578
:1005500085C502F586C503F587C504F57DC505F596
:100560007EC506F57FC507F580C508F534EC89F032
:1005700001C579F502C57AF503C57BF504C57CF59F
:1005800079C528F57AC529F57BC52AF57CC52BF5F3
:10059000000E136E000E146E200E156E410E166EB8
:1005A00073C50FF574C510F575C511F576C512F54F
:1005B0009EEC87F00FC52CF510C52DF511C52EF555
:1005C00012C52FF502EC8EF0D8A024D005016F4B98
:1005D000702B73C50FF574C510F575C511F576C58B
:1005E00012F5000E136E000E146E200E156E410EE5
:1005F000166E9EEC87F00FC573F510C574F511C526
:1006000075F512C576F5660E05016A19D8A402D0F3
:100610006D4B6E2B73C588F574C589F575C58AF564
:1006200076C58BF56FC560F570C561F5000E0501E7
:10063000686F000E656F000E646F000E786F000E1D
:10064000776FCDD079C528F57AC529F57BC52AF510
:100650007CC52BF588C52CF589C52DF58AC52EF5E9
:100660008BC52FF5BAEC8AF028C541F529C542F5AE
:100670002AC543F52BC544F5FEEC8BF041C57DF54D
:1006800042C57EF543C57FF544C580F57DC501F5BE
:100690007EC502F57FC503F580C504F5D0EC8EF06C
:1006A00002BE06D0025013E10A0E015CD8B00FD092
:1006B0007DC501F57EC502F57FC503F580C504F54E
:1006C000D0EC8EF001C56BF502C56CF505D0000EBF
:1006D00005016C6F090E6B6F05016851D8B461AFED
:1006E00020D0000E8225D96E060E8321DA6E2E0EE2
:1006F000DF6E824B832B7107D8A07207010E686FE3
:1007000010D0000E8225D96E060E8321DA6E300ECF
:10071000DF6E824B832B7107D8A072076407D8A0C5
:10072000650764516511D8A4ECD7000E8225D96EF7
:10073000060E8321DA6E6B51300FDF6E824B832BF6
:100740007107D8A0720779C528F57AC529F57BC548
:100750002AF57CC52BF57DC513F57EC514F57FC53F
:1007600015F580C516F588C50FF589C510F58AC53C
:1007700011F58BC512F59EEC87F00FC52CF510C551
:100780002DF511C52EF512C52FF56FEC90F028C58B
:1007900079F529C57AF52AC57BF52BC57CF588C581
:1007A00028F589C529F58AC52AF58BC52BF5000ED4
:1007B0002C6E000E2D6E200E2E6E410E2F6EBAEC9A
:1007C0008AF028C588F529C589F52AC58AF52BC57B
:1007D0008BF505016007D8A06107774B782B6D5129
:1007E000775D7851800A5C6E6E51800A5C58D8B093
:1007F00008D083BF27D7835104E14B0E825DD8A078
:1008000021D7000E786F4F0E776F000E7725D96EC7
:10081000060E7821DA6E000EDF6E000E5C6E060E9C
:100820005D6E82515C5E83515D5A77515C24016E2E
:1008300078515D20026E000E036E060E046E82C5B6
:1008400005F583C506F592EC90F08251775D826FD5
:1008500083517859836F8151D8B402D0010E01D0F1
:10086000000E776F786B8151D8B40BD08207D8A077
:100870008307000E8225D96E060E8321DA6E81C5AC
:10088000DFF47751715F7851725B55C512F556C52B
:1008900013F5000E8225146E060E8321156E71C5A8
:1008A00016F572C517F572EC8FF012008EC5D9F4EB
:1008B0008FC5DAF4DEC4F6F4DDC4F7F4000EF86E8A
:1008C0000800F550250AD8A486D18EC5D9F48FC565
:1008D000DAF4DE2A000EDD22000EC36F000EC26FB6
:1008E000C2C5C8F5C469C5698EC5D9F48FC5DAF427
:1008F000DEC4F6F4DDC4F7F4000EF86E0800F5501F
:100900002A0AD8A423D08EC5D9F48FC5DAF4DE2AFA
:10091000000EDD2290C5D9F491C5DAF4DFC492F55A
:10092000020EDE26DFC493F5000EDD2292C5D9F457
:1009300093C5DAF4DEC4C2F5DDC4C3F5C3AF36D067
:10094000C881C26DC31FD8B0C32B30D08EC5D9F4B7
:100950008FC5DAF4DEC407F5DDC408F572EC8DF05E
:1009600007C5C2F508C5C3F507D08EC5D9F48FC534
:10097000DAF4DE2A000EDD228EC5D9F48FC5DAF452
:10098000DEC4F6F4DDC4F7F4000EF86E0800F5C41A
:1009900092F5D00E05019225936F946BFF0E942370
:1009A000945104E10A0E935DD8A0DFD78EC5D9F427
:1009B0008FC5DAF4DEC4F6F4DDC4F7F4000EF86E89
:1009C0000800F5502E0AD8A466D0000EC56F000EA0
:1009D000C46F8EC5D9F48FC5DAF4DE2A000EDD228D
:1009E0008EC5D9F48FC5DAF4DEC4F6F4DDC4F7F4AD
:1009F000000EF86E0800F5502A0AD8A41CD08EC547
:100A0000D9F48FC5DAF4DE2A000EDD2290C5D9F4C0
:100A100091C5DAF4DFC492F5020EDE26DFC493F549
:100A2000000EDD2292C5D9F493C5DAF4DEC4C4F514
:100A3000DDC4C5F530D08EC5D9F48FC5DAF4DEC477
:100A400007F5DDC408F572EC8DF007C5C4F508C5DF
:100A5000C5F507D08EC5D9F48FC5DAF4DE2A000EAD
:100A6000DD228EC5D9F48FC5DAF4DEC4F6F4DDC418
:100A7000F7F4000EF86E0800F5C492F5D00E0501EB
:100A80009225936F946BFF0E9423945104E10A0E08
:100A9000935DD8A0DFD78EC5D9F48FC5DAF4DEC454
:100AA0009EF5DDC49FF59EC5F6F49FC5F7F4000ED4
:100AB000F86E0800F5C49DF508D09E4B9F2B17D00B
:100AC0006C0E01D0000E9D6F12D09D51926F936BF2
:100AD0009351000AD8A4F6D792514C0AD8B4EDD756
:100AE0002A0AD8B4EDD70A0AD8B4E7D7EBD79EC5FF
:100AF000F6F49FC5F7F4000EF86E0800F550660A8C
:100B0000D8B41AD060D090C5D9F491C5DAF4DFC456
:100B100092F5040EDE26DFC493F5000EDD2292C5A9
:100B2000D9F493C5DAF4DEC495F5DEC496F5DEC4D7
:100B300097F5DEC498F50ED09D51926F936B93514B
:100B4000000AD8A407D092514C0AD8B4DCD7200AA6
:100B5000D8B4D9D7010E9E25926F000E9F21936FB6
:100B60008EC5D9F48FC5DAF492C5DEF493C5DDF4F1
:100B700018D08CC555F58DC556F595C557F596C554
:100B800058F597C559F598C55AF59EC5F6F49FC511
:100B9000F7F4000EF86E0800F5C45BF500EC80F089
:100BA00012009EC5F6F49FC5F7F4000EF86E08001B
:100BB000F550926F936B9351000AD8A404D09251D0
:100BC000660AD8B4D6D78EC5D9F48FC5DAF4DE2A32
:100BD000000EDD2212008EC5D9F48FC5DAF4DEC412
:100BE000F6F4DDC4F7F4000EF86E0800F550026E5E
:100BF000036A8CC504F58DC505F5B2EC8FF0E3D71B
:100C0000080E0001B16F04012095C294CA9420918E
:100C1000C280CA90000E186F1969C968000E086F6B
:100C20000969C768000E106F000EC06E000EC86E16
:100C30003F0E0201046F04010097C696330E436F06
:100C4000330E446F000E456F000E476F4691468B82
:100C5000468F0091000E0201016FBE80C690040114
:100C600000930183C68200990189C6880095000E11
:100C70000201036FBE84C6940401009B000E0201B2
:100C8000066FBE8AC69A010ED56FA00ED46FD189A9
:100C9000D18B0401009FC68E070E0201766F0401FE
:100CA000009DBE8CC69C260E0201076FD28FDD0E02
:100CB0000501A66FFF0EA76F33EC91F0000EB96F20
:100CC000000EB86FCEB2FED7CEA2FED7C290CEB283
:100CD000FED7CEA2FED7CEB2FED7000EC96E000E52
:100CE000C76E000E0501B76F000EB66F000EB82577
:100CF000C66FC00EB921C76FC7C5C1F4C6C5BFF462
:100D0000BE94DD0EB825F66EBF0EB921F76EF86AF7
:100D1000000EF8220800F5C4C0F4B84BB92BBE840D
:100D2000B64BB72BB75104E1200EB65DD8A0DED785
:100D3000C968C768CEB2FED7CEA2FED7C280A00EC9
:100D4000E82EFED7400E0501B95DD8A0BBD7000E36
:100D50000401186F1969C968000E086F0969C7682E
:100D6000000E106F1169C868469F000E436F000E99
:100D7000446F020E456F468F000E2C6E000E2D6ED6
:100D8000800E2E6E400E2F6E000E136E240E146E0B
:100D9000F40E156E410E166E4351016E4451026EF3
:100DA0004551036E046A000ED2EC8CF001C50FF5BC
:100DB00002C510F503C511F504C512F59EEC87F0C8
:100DC0000FC528F510C529F511C52AF512C52BF553
:100DD000BAEC8AF028C5AEF529C5AFF52AC5B0F53D
:100DE0002BC5B1F5AEC528F5AFC529F5B0C52AF5B7
:100DF000B1C52BF5000E2C6E240E2D6E740E2E6ECA
:100E0000490E2F6EBAEC8AF028C5B2F529C5B3F5A4
:100E10002AC5B4F52BC5B5F5EB0E0501A66FFF0E7F
:100E2000A76FB2C5A8F5B3C5A9F5B4C5AAF5B5C5F0
:100E3000ABF533EC91F0010E0201616F1F0E636F91
:100E40001E0E646F040E656F1D0E676F1C0E686FBB
:100E5000000E0001D56F350ED86F040ED96F000E4D
:100E6000DA6F370EDB6F020EDC6F080EDD6F200EBF
:100E7000DE6F800EDF6F800ED76F820ED66F010E91
:100E8000D56F350ED86F040ED96F000EDA6F370E9E
:100E9000DB6F020EDC6F040EDD6F200EDE6F800E46
:100EA000DF6F800ED76F820ED66F020ED56F020EE7
:100EB000D86F030ED96F060EDA6F070EDB6F020EC6
:100EC000DC6F040EDD6F100EDE6F400EDF6F800EE4
:100ED000D76F820ED66F040ED56F000ED86F350E09
:100EE000D96F7F0EDA6F7F0EDB6F010EDC6F040EA1
:100EF000DD6F000EDE6F000EDF6F810ED76F8C0E80
:100F0000D66F010E0201066F020E036F050E016F10
:100F1000550E0401596FAA0E596F5991080E5D6F55
:100F2000000E5E6F000E5F6F550E596FAA0E596F5F
:100F30005981B892A882D68EC284FFD71250800BF6
:100F40001B6E12501224216E11BE21802150D8B484
:100F50000DD02128D8A408D0000E0F6E000E106E00
:100F6000000E116E000E126E118E08D0000E0F6E64
:100F7000000E106E000E116E000E126E1650800BD9
:100F80001B1A165016241C6E15BE1C801C50D8B49B
:100F90000DD01C28D8A408D0000E136E000E146EBD
:100FA000000E156E000E166E158E08D0000E136E14
:100FB000000E146E000E156E000E166E1C50D8B486
:100FC00003D02150D8A409D0000E0F6E000E106E71
:100FD000000E116E000E126E120015500F02F3C4B7
:100FE00026F5F4C427F526501D6E1E6A1F6A206A76
:100FF0002750226E236A246A256A14501002F3C413
:1010000026F5F4C427F526501D26000E1E221F22A9
:10101000202227502226000E23222422252213508C
:101020001102F3C426F5F4C427F526501D26000E40
:101030001E221F22202227502226000E2322242295
:1010400025221FC520F51EC51FF51DC51EF51D6AED
:1010500013501002F3C426F5F4C427F526501D26BC
:1010600027501E22000E1F22000E202214500F02B5
:10107000F3C426F5F4C427F526501D2627501E225A
:10108000000E1F22000E20221FC520F51EC51FF5D1
:101090001DC51EF51D6A13500F02F3C426F5F4C4D6
:1010A00027F526501D2627501E22000E1F22000E57
:1010B000202215501002F3C426F5F4C427F526505B
:1010C000222627502322000E2422000E252214500F
:1010D0001102F3C426F5F4C427F526502226275022
:1010E0002322000E2422000E252215501102F3C4E3
:1010F00026F5F4C427F52650176E2750186E196A86
:101100001A6A19C51AF518C519F517C518F5176A19
:101110001750222618502322195024221A50252213
:1011200020502226000E2322242225221FC520F52E
:101130001EC51FF51DC51EF51D6A1C5021C517F5DE
:10114000186A1726000E1822820E1724266EFF0E2C
:101150001820276E0FD0D890223623362436253615
:1011600020BE2280D8901D361E361F362036260619
:10117000D8A0270624AEEFD7000E1C6E20AE17D0E5
:10118000FF0E1D14176EFF0E1E14186EFF0E1F1497
:10119000196E7F0E20141A6E1750181019101A109D
:1011A000D8B403D0010E1C6E02D022B0FBD71C5065
:1011B000D8B41FD0010E2226000E2322242225227D
:1011C00025A017D022C517F523C518F524C519F594
:1011D00025C51AF51A341A3219321832173217C5C2
:1011E00022F518C523F519C524F51AC525F5264A93
:1011F000272A27BE0DD0275003E12628D8A008D0E3
:10120000000E226E000E236E800E246E7F0E20D004
:1012100027BE05D027500EE12604D8B00BD0000E13
:10122000226E000E236E000E246E000E256E000E40
:101230001B6E0FD026C521F5FF0E2216FF0E2316BA
:101240007F0E2416000E251621B0248ED890213052
:10125000256E1B50251222C50FF523C510F524C598
:1012600011F525C512F512000450800B0D6E0450C7
:1012700004240F6E03BE0F800F50D8B40DD00F287A
:10128000D8A408D0000E016E000E026E000E036E90
:10129000000E046E038E06D0000E016E000E026E6C
:1012A000000E036E000E046E0850800B0E6E0D5083
:1012B0000E18D8A40D8C085008240E6E07BE0E80A0
:1012C0000E50D8B40DD00E28D8A408D0000E056E4C
:1012D000000E066E000E076E000E086E078E06D01A
:1012E000000E056E000E066E000E076E000E086EF4
:1012F0000F500E5CD8B022D00DAC02D0800E0D1A6B
:101300000FC510F50EC50FF510C50EF501C510F58A
:1013100005C501F510C505F502C510F506C502F5B0
:1013200010C506F503C510F507C503F510C507F58B
:1013300004C510F508C504F510C508F5000E106EBB
:101340000F500EC509F50A6A095E000E0A5A0ABE58
:101350002CD00A5004E11A0E095CD8A026D0015006
:10136000021003100410D8B402D0010E01D0000EF8
:10137000106E000E016E000E026E000E036E000E67
:10138000046E0EC50FF515D010A005D0D890103002
:101390000109106E02D0D890103201B0108E0434C2
:1013A00004320332023201320F2A0E500F5CD8A0F1
:1013B000EBD70DBC28D00F50D8A409D0000E016E79
:1013C000000E026E000E036E000E046E1200055039
:1013D000012606500222075003220850042204A0CE
:1013E00071D010A005D0D89010300109106E02D035
:1013F000D890103201B0108E04340432033202321D
:1014000001320F2A5FD00550015C06500258075088
:1014100003580450800A096E0850800A0958D8B051
:1014200025D00150055C096E025006580A6E035023
:1014300007580B6E045008580C6EFF0E0924016EFD
:10144000FF0E0A20026EFF0E0B20036EFF0E0C2013
:10145000046E800E0D1A106C1050D8A40FD0010E1F
:101460000126000E02220322042208D00550015E4C
:101470000650025A0750035A0850045A01500210ED
:1014800003100410D8A41CD01050D8A419D0000EFA
:10149000016E000E026E000E036E000E046E12004E
:1014A000D890013602360336043610BE018010A0F3
:1014B00002D0D88001D0D89010360F50D8A40F0693
:1014C00003AEEED7000E0E6E10AE0BD010C509F5B0
:1014D0007F0E0916D8B403D0010E0E6E02D001B0F3
:1014E000FBD70E50D8B420D0010E0126000E0222E8
:1014F0000322042204A018D001C509F502C50AF58B
:1015000003C50BF504C50CF50C340C320B320A3252
:10151000093209C501F50AC502F50BC503F50CC56D
:1015200004F50F28D8A40F2A0F28D8B403D00F50E1
:10153000D8A40DD0000E016E000E026E000E036ED8
:10154000000E046E0F50D8A402D0000E0D6E0FA036
:1015500002D0038E01D0039ED8900F30046E0DBED2
:10156000048E01C501F502C502F503C503F504C5E6
:1015700004F512002B50800B386E2B502B243F6E3D
:101580002ABE3F803F50D8B40DD03F28D8A408D001
:10159000000E286E000E296E000E2A6E000E2B6EB5
:1015A0002A8E06D0000E286E000E296E000E2A6EBE
:1015B000000E2B6E2F50800B381A2F502F24406EA8
:1015C0002EBE40804050D8B40DD04028D8A408D0BA
:1015D000000E2C6E000E2D6E000E2E6E000E2F6E65
:1015E0002E8E06D0000E2C6E000E2D6E000E2E6E6E
:1015F000000E2F6E2C502D102E102F10D8A417D0A7
:10160000000E286E000E296E000E2A6E000E2B6E44
:10161000800E2A127F0E2B1238502B1228C528F567
:1016200029C529F52AC52AF52BC52BF512003F50EF
:10163000D8A409D0000E286E000E296E000E2A6E66
:10164000000E2B6E120040503FC530F5316A305EFF
:10165000000E315A7F0E3024396E000E31203A6E62
:1016600028C534F529C535F52AC536F52BC537F516
:10167000000E286E000E296E000E2A6E000E2B6ED4
:10168000000E3B6E000E3C6E000E3D6E000E3E6E78
:10169000000E406E28D04050D8B411D0D8903436C7
:1016A000353636363736D890283629362A362B3610
:1016B0003EBE2880D8903B363C363D363E362C50D8
:1016C000345C2D5035582E5036582F503758D8A0EE
:1016D00009D03E8C2C50345E2D50355A2E50365A3F
:1016E0002F50375A402A190E4064D5D73450351040
:1016F00036103710D8B411D03B800FD0D890283690
:1017000029362A362B363EBE2880D8903B363C36CA
:101710003D363E363906D8A03A062AAEEFD7000E3F
:10172000406E3EAE17D0FF0E3B14306EFF0E3C14E1
:10173000316EFF0E3D14326E7F0E3E14336E30500C
:10174000311032103310D8B403D0010E406E02D0E5
:1017500028B0FBD74050D8B41FD0010E2826000E69
:1017600029222A222B222BA017D028C530F529C5E3
:1017700031F52AC532F52BC533F5333433323232E5
:101780003132303230C528F531C529F532C52AF558
:1017900033C52BF5394A3A2A3ABE10D03A5003E104
:1017A0003928D8A00BD0000E3A6E3968000E286E8A
:1017B000000E296E000E2A6E000E2B6E3ABE05D06A
:1017C0003A5011E13904D8B00ED0000E3A6E000E36
:1017D000396E000E286E000E296E000E2A6E000E65
:1017E0002B6E000E386E39C53FF53FA002D02A8E11
:1017F00001D02A9ED8903F302B6E0ED7BAC551F536
:10180000BBC552F5BCC553F5BDC554F541C551F531
:1018100042C552F543C553F544C554F5810E456E96
:10182000FF0E466E51C547F552C548F553C549F5FB
:1018300054C54AF5180E05D0D8904A32493248327C
:101840004732E82EF9D7475045244F6E000E462008
:10185000506E50BE0FD0505004E1170E4F5CD8A010
:1018600009D041C541F542C542F543C543F544C5DC
:1018700044F5120050BE5BD04FC545F5FF0E466ED5
:10188000FF0E476E7F0E486E000E496E456601D012
:1018900007D049344932483247324632452EF6D7CE
:1018A00046C54BF547C54CF548C54DF549C54EF500
:1018B0004B505114456E4C505214466E4D505314BB
:1018C000476E4E505414486E45504610471048100D
:1018D000D8B4C7D751C545F552C546F553C547F5E8
:1018E00054C548F5200E05D0D890483247324632CC
:1018F0004532E82EF9D74550D8B408D04B50512680
:101900004C5052224D5053224E5054224B1C456E87
:101910004C1C466E4D1C476E4E1C486E4550511671
:1019200046505216475053164850541632D051C59F
:1019300045F552C546F553C547F554C548F5200E43
:1019400005D0D8904832473246324532E82EF9D792
:10195000456608D0000E516E000E526E000E536E9A
:10196000000E16D0D8905134456E5234466E533422
:10197000476E5434486E4550461047104810D8B44E
:1019800008D0000E516E000E526E800E536EBF0EC8
:10199000546E51C541F552C542F553C543F554C582
:1019A00044F51200096E0950D8A404AE1AD001C53E
:1019B00005F502C506F503C507F504C508F5051EBE
:1019C000061E071E081E052A000E062207220822F0
:1019D00005C50BF506C50CF507C50DF508C50EF5D3
:1019E00008D001C50BF502C50CF503C50DF504C5FE
:1019F0000EF50150021003100410D8A409D0000EF7
:101A0000016E000E026E000E036E000E046E1200D8
:101A1000960E0A6E06D00A2AD8900E320D320C327B
:101A20000B32000E0B14056E000E0C14066E000E29
:101A30000D14076EFE0E0E14086E055006100710EA
:101A40000810D8B40DD0E7D70A2A010E0B26000ED5
:101A50000C220D220E22D8900E320D320C320B3297
:101A6000000E0B14056E000E0C14066E000E0D1405
:101A7000076EFF0E0E14086E0550061007100810B2
:101A8000D8B407D0E1D70A06D8900B360C360D36FD
:101A90000E360DBE03D0020E0A60F5D70AA00D9EC9
:101AA000D8900A320AC505F5066A076A086A05C5AC
:101AB00008F5076A066A056A05500B1206500C12F3
:101AC00007500D1208500E120950D8A404AE01D0D0
:101AD0000E8E0BC501F50CC502F50DC503F50EC53F
:101AE00004F51200000E0F6E000E0E6E000E0D6E4D
:101AF000000E0C6E02D0074A082A07C5F6F408C586
:101B0000F7F4000EF86E0800F550200AD8B4F3D7A9
:101B100007C5F6F408C5F7F4000EF86E0800F5C422
:101B200009F5F70E09240A6E0B6AFF0E0B220B5003
:101B30000CE1050E0A5CD8B008D0DDD7000E0D6EA2
:101B4000010E0C6E074A082A32D007C5F6F408C504
:101B5000F7F4000EF86E0800F550096E0A6A0A5094
:101B6000000AD8A424D009502B0AD8B4EBD7060A0F
:101B7000D8B4E4D71CD00EC501F50FC502F5000E90
:101B8000046E0A0E036E46EC91F007C5F6F408C524
:101B9000F7F4000EF86E0800F550015E000E025AD0
:101BA000300E01240E6E000E02200F6ECBD707C53B
:101BB000F6F408C5F7F4000EF86E0800F5C409F550
:101BC000D00E09240A6E0B6AFF0E0B220B5004E1A3
:101BD0000A0E0A5CD8A0CFD70C500D10D8A40DD097
:101BE0000EC509F50FC50AF5091E0A1E094A0A2A7B
:101BF00009C507F50AC508F512000EC507F50FC59A
:101C000008F51200000E2814306E000E2914316EF3
:101C1000800E2A14326E7F0E2B14336E305031102A
:101C200032103310D8A408D0000E286E000E296E92
:101C3000000E2A6E000E2B6E000E2C14306E000E5D
:101C40002D14316E800E2E14326E7F0E2F14336ED3
:101C50003050311032103310D8A408D0000E2C6E42
:101C6000000E2D6E000E2E6E000E2F6E2BAE09D0C4
:101C7000286C291ED8B0292A2A1ED8B02A2A800EFC
:101C80002B562FAE09D02C6C2D1ED8B02D2A2E1E0F
:101C9000D8B02E2A800E2F56000E281A000E291AB0
:101CA000000E2A1A800E2B1A000E2C1A000E2D1A66
:101CB000000E2E1A800E2F1A2C50285C2D502958F9
:101CC0002E502A582F502B58D8B002D0D89012003E
:101CD000D8801200BEC50BF5BFC50CF5C0C50DF50B
:101CE000C1C50EF501C50BF502C50CF503C50DF513
:101CF00004C50EF50BC505F50CC506F50DC507F5B4
:101D00000EC508F5180E05D0D890083207320632F5
:101D10000532E82EF9D70550096E0A6A09500A10F3
:101D2000D8A419D0D8900B34056E0C34066E0D343F
:101D3000076E0E34086E0550061007100810D8A460
:101D400005D0000E026E020E016E1200000E026E31
:101D5000030E016E120009280A10D8A41CD00BC56E
:101D600005F50CC506F50DC507F50EC508F5090EF8
:101D7000D8900536063607360836E82EF9D70550CE
:101D8000061007100810D8A402D0010E01D0000ED2
:101D9000016E026A1200000E026E040E016E120045
:101DA000033404340A6E0A50D8A409D0000E016E20
:101DB000000E026E000E036E000E046E120001C5CE
:101DC00005F502C506F503C507F504C508F5200E9F
:101DD00005D0D8900832073206320532E82EF9D7FE
:101DE0000550096E038EFF0E0116FF0E0216FF0E40
:101DF0000316000E0416960E0A5E0AAE0DD00A50A7
:101E0000800A970FD8A0D2D7D8900432033202327A
:101E100001320A3EF9D70DD01F0E0A6407D0C6D78B
:101E2000D89001360236033604360A060A50D8A482
:101E3000F7D70950D8B408D0041E031E021E016C47
:101E4000000E02220322042201C501F502C502F59B
:101E500003C503F504C504F51200000E0114096E54
:101E6000000E02140A6E800E03140B6E7F0E041413
:101E70000C6E09500A100B100C10D8A408D0000EDC
:101E8000016E000E026E000E036E000E046E000E58
:101E90000514096E000E06140A6E800E07140B6EF0
:101EA0007F0E08140C6E09500A100B100C10D8A4E9
:101EB00008D0000E056E000E066E000E076E000EB6
:101EC000086E055001180AE10650021807E1075094
:101ED000031804E108500418D8B402D0D8901200B6
:101EE000D8801200C8A10AD014C50BF515C50CF591
:101EF00012C50DF513C50EF5D1EC90F017BE05D047
:101F000016C51BF517C51CF504D0000E1C6E000E7F
:101F10001B6E000E1A6E000E196E0CD0000E036EB2
:101F2000200E026E12C504F513C505F5B2EC8FF054
:101F3000194A1A2A1B50195C1A50800A186E1C5034
:101F4000800A1858D8A0EAD70501C8B1120014C5F4
:101F50000BF515C50CF512C50DF513C50EF5D1EC35
:101F600090F0120004500510D8B404D004500510AD
:101F7000D8A404D002506BEC91F0120020EE09F0CE
:101F80000450D9260550DA22DE50DE10D8B416D01F
:101F900020EE09F00450D9260550DA2210EE03F0A5
:101FA0000450E1260550E222DE50E65CE650800A4D
:101FB0000A6EDE50800A0A58D8B0120020EE03F0F4
:101FC0000450D9260550DA22DE2A000EDD22120046
:101FD000B892D1C4C7F5CFC4C6F5CEB80DD0190E8E
:101FE0000501C61905E1800EC719D8B4D0C4C9F2DD
:101FF0000001D785D7951100000EC86E180E050197
:10200000C61907E1800EC719D8A403D0B7C4C0F41D
:102010000BD0190EC61907E1800EC719D8A403D03A
:10202000C7C2C0F401D0C068CEA6FED700F0000140
:10203000D785D795CEB2FED7C868110004BE07D0A9
:102040000450031002101DE10104D8B01AD001C5DC
:1020500005F502C506F503C507F504C508F5051E17
:10206000061E071E081E052A000E06220722082249
:1020700005C501F506C502F507C503F508C504F554
:10208000120001C501F502C502F503C503F504C53B
:1020900004F51200A2C55EF5A3C55FF50FD0A0C57B
:1020A0008CF5A1C58DF55E0E05018E6F050E8F6F47
:1020B000A4C590F5A5C591F556EC84F05EC5F6F47F
:1020C0005FC5F7F4000EF86E0800F5500009D8A4BB
:1020D000E6D7000E0501A16F000EA06F1200000EE2
:1020E0002C1A000E2D1A000E2E1A800E2F1A28C53B
:1020F00001F529C502F52AC503F52BC504F52CC544
:1021000005F52DC506F52EC507F52FC508F534ECE8
:1021100089F001C528F502C529F503C52AF504C5CE
:102120002BF5120003C509F504C50AF501C507F52D
:1021300002C508F510D009C5D9F40AC5DAF4DF5094
:102140000B6E094A0A2A07C5D9F408C5DAF40BC58B
:10215000DFF4074A082A0506D8A006060528EBE1A1
:102160000628D8B41200E7D703C505F504C506F55F
:1021700001C507F502C508F505C5F6F406C5F7F46F
:10218000054A062A000EF86E07C5D9F408C5DAF428
:10219000074A082A0800F5C4DFF4DF50D8B412005B
:1021A000EBD7000E116E000E106E0BD00FC502F5AE
:1021B000036A0DC504F50EC505F5B2EC8FF0104AA3
:1021C000112A10500B24D96E11500C20DA6EDF50FA
:1021D0000F6E0F50D8B41200E9D7010E056E200E15
:1021E00001180210D8B40ED0F70E0124036EFF0EB2
:1021F0000220046E045004E1050E035CD8A002D056
:10220000000E056E05C501F5026A120001500210AC
:1022100003100410D8B408D0000E011A000E021AE0
:10222000000E031A800E041A01C501F502C502F55D
:1022300003C503F504C504F5120001EE00F2500ECB
:10224000EE6AE806FDE101EEBAF10F0EEE6AE8066D
:10225000FDE10401080E5D6F000E5E6F000E5F6F02
:10226000000100EF86F0A80EAC6F050EAD6F000EFA
:10227000A06F000EA16FA6C5A2F5A7C5A3F5AC0E71
:10228000A46F050EA56F4AEC90F0120001500302F6
:10229000F3C405F5F4C406F501500402F350062614
:1022A00002500302F350062605C501F506C502F5E6
:1022B0001200D00E0124036EFF0E0220046E0450A3
:1022C00006E10A0E035CD8B002D0010E01D0000E68
:1022D000016E026A1200016EB7A2FED701C5C9F2F3
:0222E0001200EA
:0222E4001100E7
:020000040020DA
:10000000FF0FFF0FFF0FFF0FFF0FFF0FFF0FFF0F80
:10001000FF0FFF0FFF0FFF0FFF0FFF0FFF0FFF0F70
:10002000FF0FFF0FFF0FFF0FFF0FFF0FFF0FFF0F60
:10003000FF0FFF0FFF0FFF0FFF0FFF0FFF0FFF0F50
:020000040030CA
:080000008CFFFFF79FFFFFFFDB
:01000900FFF7
:00000001FF
